{
  "transactions": [
    {
      "hash": "0x151e3d7e2cae787b1ea976fea2456fa0b3940ab068b2a5f56fd6a0d6b18ce1ef",
      "transactionType": "CREATE",
      "contractName": "OurColor",
      "contractAddress": "0x2b7064E9674d767Cd7eFd4aEB150b493F03a4621",
      "function": null,
      "arguments": null,
      "transaction": {
        "type": "0x02",
        "from": "0x496593189d0673bd5e85509df3f4c4c26e1a0c84",
        "gas": "0x12ccec",
        "value": "0x0",
        "data": "0x608060405234801561001057600080fd5b50611030806100206000396000f3fe608060405234801561001057600080fd5b50600436106100625760003560e01c806355a373d61461006757806366578e58146100975780639ded06df146100b8578063a88d27f1146100cd578063b722072e146100e0578063bd11f69d14610100575b600080fd5b60005461007a906001600160a01b031681565b6040516001600160a01b0390911681526020015b60405180910390f35b6100aa6100a5366004610c3e565b61015a565b60405190815260200161008e565b6100cb6100c6366004610d0b565b6101e3565b005b60015461007a906001600160a01b031681565b6100aa6100ee366004610da0565b60036020526000908152604090205481565b61013661010e366004610dd1565b60026020526000908152604090205460ff808216916101008104821691620100009091041683565b6040805160ff9485168152928416602084015292169181019190915260600161008e565b6000338161016784610390565b9050610172816104ec565b156101c45760405162461bcd60e51b815260206004820152601c60248201527f4f7572436f6c6f723a20616c726561647920726567697374657265640000000060448201526064015b60405180910390fd5b6101ce828561051e565b60006101da838361069d565b95945050505050565b80516000036101f157600080fd5b600080828060200190518101906102089190610e06565b600080546001600160a01b03199081166001600160a01b03858116918217845560018054909316908516179091556040805163f1b0d6bb60e01b81529051949650929450926323bd038692309291859163f1b0d6bb9160048083019260209291908290030181865afa158015610282573d6000803e3d6000fd5b505050506040513d601f19601f820116820180604052508101906102a69190610e39565b6040516001600160e01b031960e086901b1681526001600160a01b03909316600484015260248301919091526044820152606401602060405180830381865afa1580156102f7573d6000803e3d6000fd5b505050506040513d601f19601f8201168201806040525081019061031b9190610e52565b6103835760405162461bcd60e51b815260206004820152603360248201527f4f7572436f6c6f723a2063616e6e6f742063616c6c205a6f726143726561746f6044820152723918989a9a91b9b2ba3ab82732bbaa37b5b2b760691b60648201526084016101bb565b61038b61078e565b505050565b60408051606081018252600080825260208201819052918101829052908080805b855181101561048f5760008682815181106103ce576103ce610e74565b60209081029190910181015180516000908152600283526040908190208151606081018352905460ff8082168084526101008304821684880152620100009092041692820192909252928201519193506104289190610ea0565b6104329087610eb7565b95508160200151816020015160ff1661044b9190610ea0565b6104559086610eb7565b94508160200151816040015160ff1661046e9190610ea0565b6104789085610eb7565b93505050808061048790610eca565b9150506103b1565b50604051806060016040528060ff85116104a957846104ac565b60ff5b60ff16815260200160ff83116104c257826104c5565b60ff5b60ff16815260200160ff84116104db57836104de565b60ff5b60ff16905295945050505050565b6000600360006104fb84610838565b6001600160e81b0319168152602081019190915260400160002054151592915050565b6000815167ffffffffffffffff81111561053a5761053a610bce565b604051908082528060200260200182016040528015610563578160200160208202803683370190505b5090506000825167ffffffffffffffff81111561058257610582610bce565b6040519080825280602002602001820160405280156105ab578160200160208202803683370190505b50905060005b83518110156106305760008482815181106105ce576105ce610e74565b6020026020010151905080600001518483815181106105ef576105ef610e74565b602002602001018181525050806020015183838151811061061257610612610e74565b6020908102919091010152508061062881610eca565b9150506105b1565b50600054604051631ac8311560e21b81526001600160a01b0390911690636b20c4549061066590879086908690600401610f1e565b600060405180830381600087803b15801561067f57600080fd5b505af1158015610693573d6000803e3d6000fd5b5050505050505050565b6000806106aa8484610890565b600081815260026020908152604080832087518154938901519289015160ff908116620100000262ff0000199482166101000261ffff1990961691909216179390931791909116919091179055909150819060039061070886610838565b6001600160e81b03191681526020808201929092526040908101600020929092558151838152855160ff9081168284015291860151821681840152918501511660608201526001600160a01b038516907f7af7f639f577383f0a8a8478127a8ae22234d6e7dd79d6bc411f54efb4f9e6899060800160405180910390a290505b92915050565b604080516060810182526000808252602082018190529181019190915233906107b890829061069d565b506040805160608101825260018152600060208201819052918101919091526107e290829061069d565b50604080516060810182526000808252600160208301529181019190915261080b90829061069d565b50604080516060810182526000808252602082015260019181019190915261083490829061069d565b5050565b805160208083015160408085015190516001600160f81b031960f895861b81169482019490945291841b8316602183015290921b16602282015260009060230160405160208183030381529060405261078890610f5e565b600061089b826104ec565b156108f35760405162461bcd60e51b815260206004820152602260248201527f4f7572436f6c6f723a20636f6c6f7220616c7265616479207265676973746572604482015261195960f21b60648201526084016101bb565b600080546040516333a65d7360e11b8152606060048201526064810183905260001960248201526001600160a01b0386811660448301529091169063674cbae6906084016020604051808303816000875af1158015610956573d6000803e3d6000fd5b505050506040513d601f19601f8201168201806040525081019061097a9190610e39565b9050806000036109d85760405162461bcd60e51b815260206004820152602360248201527f4f7572436f6c6f723a206661696c656420746f207365747570206e657720746f60448201526235b2b760e91b60648201526084016101bb565b6000546001546040805163f1b0d6bb60e01b815290516001600160a01b0393841693638ec998a0938693911691859163f1b0d6bb9160048083019260209291908290030181865afa158015610a31573d6000803e3d6000fd5b505050506040513d601f19601f82011682018060405250810190610a559190610e39565b6040516001600160e01b031960e086901b16815260048101939093526001600160a01b0390911660248301526044820152606401600060405180830381600087803b158015610aa357600080fd5b505af1158015610ab7573d6000803e3d6000fd5b5050600080546001546040805160a08101825284815267ffffffffffffffff60208083018281528385018881526060850189815260808601998a528651602481018e905295518516604487015291518416606486015251909216608484015290516bffffffffffffffffffffffff1660a483015294516001600160a01b0390811660c4808401919091528351808403909101815260e4909201835294810180516001600160e01b0316631a6dbf7760e11b1790529051636c825ca560e11b8152928416955063d904b94a9450610b94938793921691600401610f95565b600060405180830381600087803b158015610bae57600080fd5b505af1158015610bc2573d6000803e3d6000fd5b50929695505050505050565b634e487b7160e01b600052604160045260246000fd5b6040805190810167ffffffffffffffff81118282101715610c0757610c07610bce565b60405290565b604051601f8201601f1916810167ffffffffffffffff81118282101715610c3657610c36610bce565b604052919050565b60006020808385031215610c5157600080fd5b823567ffffffffffffffff80821115610c6957600080fd5b818501915085601f830112610c7d57600080fd5b813581811115610c8f57610c8f610bce565b610c9d848260051b01610c0d565b818152848101925060069190911b830184019087821115610cbd57600080fd5b928401925b81841015610d005760408489031215610cdb5760008081fd5b610ce3610be4565b843581528585013586820152835260409093019291840191610cc2565b979650505050505050565b60006020808385031215610d1e57600080fd5b823567ffffffffffffffff80821115610d3657600080fd5b818501915085601f830112610d4a57600080fd5b813581811115610d5c57610d5c610bce565b610d6e601f8201601f19168501610c0d565b91508082528684828501011115610d8457600080fd5b8084840185840137600090820190930192909252509392505050565b600060208284031215610db257600080fd5b81356001600160e81b031981168114610dca57600080fd5b9392505050565b600060208284031215610de357600080fd5b5035919050565b80516001600160a01b0381168114610e0157600080fd5b919050565b60008060408385031215610e1957600080fd5b610e2283610dea565b9150610e3060208401610dea565b90509250929050565b600060208284031215610e4b57600080fd5b5051919050565b600060208284031215610e6457600080fd5b81518015158114610dca57600080fd5b634e487b7160e01b600052603260045260246000fd5b634e487b7160e01b600052601160045260246000fd5b808202811582820484141761078857610788610e8a565b8082018082111561078857610788610e8a565b600060018201610edc57610edc610e8a565b5060010190565b600081518084526020808501945080840160005b83811015610f1357815187529582019590820190600101610ef7565b509495945050505050565b6001600160a01b0384168152606060208201819052600090610f4290830185610ee3565b8281036040840152610f548185610ee3565b9695505050505050565b805160208201516001600160e81b03198082169291906003831015610f8d5780818460030360031b1b83161693505b505050919050565b8381526000602060018060a01b0385168184015260606040840152835180606085015260005b81811015610fd757858101830151858201608001528201610fbb565b506000608082860101526080601f19601f8301168501019250505094935050505056fea264697066735822122011b79f4c614b488c633aa10d4ded6701fc52a73debb67e5f8cfc01b9831eaf4a64736f6c63430008110033",
        "nonce": "0xde",
        "accessList": []
      },
      "additionalContracts": [],
      "isFixedGasLimit": false
    },
    {
      "hash": "0xd0119a2f133349006e357abe5342bc8abfa0adc1642bb10658649dbbb4323674",
      "transactionType": "CREATE",
      "contractName": "OurColorRenderer",
      "contractAddress": "0x8E1e088eD7049B2Ff43AD89D6d443fD066826315",
      "function": null,
      "arguments": null,
      "transaction": {
        "type": "0x02",
        "from": "0x496593189d0673bd5e85509df3f4c4c26e1a0c84",
        "gas": "0x14d5d4",
        "value": "0x0",
        "data": "0x608060405234801561001057600080fd5b5061120a806100206000396000f3fe608060405234801561001057600080fd5b50600436106100935760003560e01c806375d0c0dc1161006657806375d0c0dc14610117578063872db8891461011f5780638f199160146101275780639ded06df14610152578063e8a3d4851461016757600080fd5b806301ffc9a7146100985780630e89341c146100d15780631252a531146100f1578063126b06b714610104575b600080fd5b6100bc6100a6366004610666565b6001600160e01b031916633de3f32360e11b1490565b60405190151581526020015b60405180910390f35b6100e46100df366004610690565b61016f565b6040516100c891906106cd565b6100e46100ff366004610759565b6101cd565b6100e4610112366004610690565b6101f7565b6100e46102ac565b6100e461033a565b60005461013a906001600160a01b031681565b6040516001600160a01b0390911681526020016100c8565b6101656101603660046107f3565b610347565b005b6100e46103b0565b6060600061017c836101f7565b90506101a681604051602001610192919061088f565b6040516020818303038152906040526103ff565b6040516020016101b6919061093b565b604051602081830303815290604052915050919050565b606060006101da83610552565b90506101f0816040516020016101929190610980565b9392505050565b6000805460405163bd11f69d60e01b81526004810184905260609291829182916001600160a01b03169063bd11f69d90602401606060405180830381865afa158015610247573d6000803e3d6000fd5b505050506040513d601f19601f8201168201806040525081019061026b9190610cfb565b925092509250600060405180606001604052808560ff1681526020018460ff1681526020018360ff1681525090506102a2816101cd565b9695505050505050565b600180546102b990610d48565b80601f01602080910402602001604051908101604052809291908181526020018280546102e590610d48565b80156103325780601f1061030757610100808354040283529160200191610332565b820191906000526020600020905b81548152906001019060200180831161031557829003601f168201915b505050505081565b600280546102b990610d48565b805160000361035557600080fd5b60008060008380602001905181019061036e9190610dcf565b600080546001600160a01b0319166001600160a01b03851617905591945092509050600161039c8382610ea1565b5060026103a98282610ea1565b5050505050565b606060006103be60006101f7565b90506103da600160028360405160200161019293929190610fd4565b6040516020016103ea919061093b565b60405160208183030381529060405291505090565b6060815160000361041e57505060408051602081019091526000815290565b6000604051806060016040528060408152602001611195604091399050600060038451600261044d9190611098565b61045791906110b1565b6104629060046110d3565b67ffffffffffffffff81111561047a5761047a610700565b6040519080825280601f01601f1916602001820160405280156104a4576020820181803683370190505b509050600182016020820185865187015b80821015610510576003820191508151603f8160121c168501518453600184019350603f81600c1c168501518453600184019350603f8160061c168501518453600184019350603f81168501518453506001830192506104b5565b505060038651066001811461052c576002811461053f57610547565b603d6001830353603d6002830353610547565b603d60018303535b509195945050505050565b6060610564826000015160ff166105ac565b610574836020015160ff166105ac565b610584846040015160ff166105ac565b604051602001610596939291906110ea565b6040516020818303038152906040529050919050565b6040805160028082528183019092526060916000919060208201818036833701905050905060005b60028160ff16101561065f57600f600485901c81169416600a8110610606576105fe81605761112d565b60f81b610615565b61061181603061112d565b60f81b5b83610621846001611146565b60ff16815181106106345761063461115f565b60200101906001600160f81b031916908160001a90535050808061065790611175565b9150506105d4565b5092915050565b60006020828403121561067857600080fd5b81356001600160e01b0319811681146101f057600080fd5b6000602082840312156106a257600080fd5b5035919050565b60005b838110156106c45781810151838201526020016106ac565b50506000910152565b60208152600082518060208401526106ec8160408501602087016106a9565b601f01601f19169190910160400192915050565b634e487b7160e01b600052604160045260246000fd5b604051601f8201601f1916810167ffffffffffffffff8111828210171561073f5761073f610700565b604052919050565b60ff8116811461075657600080fd5b50565b60006060828403121561076b57600080fd5b6040516060810181811067ffffffffffffffff8211171561078e5761078e610700565b604052823561079c81610747565b815260208301356107ac81610747565b602082015260408301356107bf81610747565b60408201529392505050565b600067ffffffffffffffff8211156107e5576107e5610700565b50601f01601f191660200190565b60006020828403121561080557600080fd5b813567ffffffffffffffff81111561081c57600080fd5b8201601f8101841361082d57600080fd5b803561084061083b826107cb565b610716565b81815285602083850101111561085557600080fd5b81602084016020830137600091810160200191909152949350505050565b600081516108858185602086016106a9565b9290920192915050565b7f7b226e616d65223a224f757220436f6c6f7220546f6b656e222c20226465736381527f72697074696f6e223a224f757220436f6c6f7220546f6b656e222c2022696d6160208201526533b2911d101160d11b60408201527f646174613a696d6167652f7376672b786d6c3b6261736536342c0000000000006046820152600082516109228160608501602087016106a9565b61227d60f01b6060939091019283015250606201919050565b7f646174613a6170706c69636174696f6e2f6a736f6e3b6261736536342c00000081526000825161097381601d8501602087016106a9565b91909101601d0192915050565b7f3c7376672077696474683d2236363122206865696768743d223636312220766981527f6577426f783d223020302036363120363631222066696c6c3d226e6f6e65222060208201527f786d6c6e733d22687474703a2f2f7777772e77332e6f72672f323030302f737660408201526233911f60e91b60608201527f3c7061746820643d224d342e36333433203237352e343436432d32352e34393560638201527f38203435342e3932322039352e39363837203632352e333937203237352e343460838201527f35203635352e353237433435342e393231203638352e363537203632352e333960a38201527f36203536342e313932203635352e353236203338342e373136433638352e343960c38201527f203230352e323132203536342e3032362033342e37333735203338342e37313560e38201527f20342e3633353233433230352e323339202d32352e343934392033342e3736346101038201527f342039352e3936393620342e36333433203237352e3434365a222066696c6c3d6101238201527f2275726c28237061696e74305f72616469616c5f313436375f302922202f3e00610143820152651e3232b3399f60d11b6101628201527f3c72616469616c4772616469656e742069643d227061696e74305f72616469616101688201527f6c5f313436375f30222063783d2230222063793d22302220723d2231222067726101888201527f616469656e74556e6974733d227573657253706163654f6e55736522206772616101a88201527f6469656e745472616e73666f726d3d227472616e736c617465283435322e31356101c88201527f35203139332e3531312920726f74617465283133382e303929207363616c65286101e8820152711a991c97199999101a991c9719999914911f60711b6102088201527f3c73746f70206f66667365743d22302e30323637222073746f702d636f6c6f7261021a8201526c1e9111a323232323231110179f60991b61023a8201527f3c73746f70206f66667365743d22302e3335222073746f702d636f6c6f723d22610247820152602360f81b61026782015260006101f0610ce9610cd6610cb9610ca9610268870188610873565b631110179f60e11b815260040190565b701e17b930b234b0b623b930b234b2b73a1f60791b815260110190565b661e17b232b3399f60c91b815260070190565b651e17b9bb339f60d11b815260060190565b600080600060608486031215610d1057600080fd5b8351610d1b81610747565b6020850151909350610d2c81610747565b6040850151909250610d3d81610747565b809150509250925092565b600181811c90821680610d5c57607f821691505b602082108103610d7c57634e487b7160e01b600052602260045260246000fd5b50919050565b600082601f830112610d9357600080fd5b8151610da161083b826107cb565b818152846020838601011115610db657600080fd5b610dc78260208301602087016106a9565b949350505050565b600080600060608486031215610de457600080fd5b83516001600160a01b0381168114610dfb57600080fd5b602085015190935067ffffffffffffffff80821115610e1957600080fd5b610e2587838801610d82565b93506040860151915080821115610e3b57600080fd5b50610e4886828701610d82565b9150509250925092565b601f821115610e9c57600081815260208120601f850160051c81016020861015610e795750805b601f850160051c820191505b81811015610e9857828155600101610e85565b5050505b505050565b815167ffffffffffffffff811115610ebb57610ebb610700565b610ecf81610ec98454610d48565b84610e52565b602080601f831160018114610f045760008415610eec5750858301515b600019600386901b1c1916600185901b178555610e98565b600085815260208120601f198616915b82811015610f3357888601518255948401946001909101908401610f14565b5085821015610f515787850151600019600388901b60f8161c191681555b5050505050600190811b01905550565b60008154610f6e81610d48565b60018281168015610f865760018114610f9b57610fca565b60ff1984168752821515830287019450610fca565b8560005260208060002060005b85811015610fc15781548a820152908401908201610fa8565b50505082870194505b5050505092915050565b683d913730b6b2911d1160b91b81526000610ff26009830186610f61565b71111610113232b9b1b934b83a34b7b7111d1160711b81526110176012820186610f61565b6c1116101134b6b0b3b2911d101160991b81527f646174613a696d6167652f7376672b786d6c3b6261736536342c000000000000600d82015284519091506110668160278401602088016106a9565b61227d60f01b6027929091019182015260290195945050505050565b634e487b7160e01b600052601160045260246000fd5b808201808211156110ab576110ab611082565b92915050565b6000826110ce57634e487b7160e01b600052601260045260246000fd5b500490565b80820281158282048414176110ab576110ab611082565b600084516110fc8184602089016106a9565b8451908301906111108183602089016106a9565b84519101906111238183602088016106a9565b0195945050505050565b60ff81811683821601908111156110ab576110ab611082565b60ff82811682821603908111156110ab576110ab611082565b634e487b7160e01b600052603260045260246000fd5b600060ff821660ff810361118b5761118b611082565b6001019291505056fe4142434445464748494a4b4c4d4e4f505152535455565758595a6162636465666768696a6b6c6d6e6f707172737475767778797a303132333435363738392b2fa264697066735822122034d68382614956119a9bb4f721fea11d138d5f68748234acdf7e4f00f64aa7d664736f6c63430008110033",
        "nonce": "0xdf",
        "accessList": []
      },
      "additionalContracts": [],
      "isFixedGasLimit": false
    },
    {
      "hash": "0x8bbe1f255b866055e62ba9c4cb81ccf84ae5e954d026b06579489c04b67ef3ba",
      "transactionType": "CALL",
      "contractName": "OurColorRenderer",
      "contractAddress": "0x8E1e088eD7049B2Ff43AD89D6d443fD066826315",
      "function": "setup(bytes)",
      "arguments": [
        "0x0000000000000000000000002b7064e9674d767cd7efd4aeb150b493f03a4621000000000000000000000000000000000000000000000000000000000000006000000000000000000000000000000000000000000000000000000000000000a0000000000000000000000000000000000000000000000000000000000000000974657374206e616d650000000000000000000000000000000000000000000000000000000000000000000000000000000000000000000000000000000000001074657374206465736372697074696f6e00000000000000000000000000000000"
      ],
      "transaction": {
        "type": "0x02",
        "from": "0x496593189d0673bd5e85509df3f4c4c26e1a0c84",
        "to": "0x8e1e088ed7049b2ff43ad89d6d443fd066826315",
        "gas": "0x1f030",
        "value": "0x0",
        "data": "0x9ded06df000000000000000000000000000000000000000000000000000000000000002000000000000000000000000000000000000000000000000000000000000000e00000000000000000000000002b7064e9674d767cd7efd4aeb150b493f03a4621000000000000000000000000000000000000000000000000000000000000006000000000000000000000000000000000000000000000000000000000000000a0000000000000000000000000000000000000000000000000000000000000000974657374206e616d650000000000000000000000000000000000000000000000000000000000000000000000000000000000000000000000000000000000001074657374206465736372697074696f6e00000000000000000000000000000000",
        "nonce": "0xe0",
        "accessList": []
      },
      "additionalContracts": [],
      "isFixedGasLimit": false
    },
    {
      "hash": "0x9733fc66cd1f99130e013a5fa38d64b4a43e30a3f7ba86bdb5947ad81287565a",
      "transactionType": "CALL",
      "contractName": null,
      "contractAddress": "0x6a357139C1bcDcf0B3AB9bC447932dDdcb956703",
      "function": null,
      "arguments": null,
      "transaction": {
        "type": "0x02",
        "from": "0x496593189d0673bd5e85509df3f4c4c26e1a0c84",
        "to": "0x6a357139c1bcdcf0b3ab9bc447932dddcb956703",
        "gas": "0x94584",
        "value": "0x0",
        "data": "0x0582823a00000000000000000000000000000000000000000000000000000000000000e0000000000000000000000000000000000000000000000000000000000000010000000000000000000000000000000000000000000000000000000000000000000000000000000000000000000000000000000000000000000000000000000000000000000000000000000000496593189d0673bd5e85509df3f4c4c26e1a0c84000000000000000000000000496593189d0673bd5e85509df3f4c4c26e1a0c840000000000000000000000000000000000000000000000000000000000000140000000000000000000000000000000000000000000000000000000000000000000000000000000000000000000000000000000000000000000000000000000094f757220436f6c6f7200000000000000000000000000000000000000000000000000000000000000000000000000000000000000000000000000000000000002000000000000000000000000000000000000000000000000000000000000004000000000000000000000000000000000000000000000000000000000000000c000000000000000000000000000000000000000000000000000000000000000446661a9ba00000000000000000000000000000000000000000000000000000000000000000000000000000000000000008e1e088ed7049b2ff43ad89d6d443fd0668263150000000000000000000000000000000000000000000000000000000000000000000000000000000000000000000000000000000000000000000000648ec998a000000000000000000000000000000000000000000000000000000000000000000000000000000000000000002b7064e9674d767cd7efd4aeb150b493f03a4621000000000000000000000000000000000000000000000000000000000000000200000000000000000000000000000000000000000000000000000000",
        "nonce": "0xe1",
        "accessList": []
      },
      "additionalContracts": [
        {
          "transactionType": "CREATE",
          "address": "0x5de01F75deCF8364dBca7B7d75bE116389638716",
          "initCode": "604060808152346102225761040890813803918261001c81610227565b938492833960209384918101031261022257516001600160a01b03811692838203610222578251916001600160401b03908284018281118582101761020c57808652600096878652823b156101b2577f360894a13ba1a3210667c828492db98dca3e2076cc3735a920a3ca505d382bbc80546001600160a01b031916821790557fbc7cd75a20ee27fd9adebab32041f755214dbc6bffa90cc0225b39da2e5c2d3b8880a28451158015906101ab575b6100dd575b855160e790816103218239f35b8551946060860186811085821117610197578752602786527f416464726573733a206c6f772d6c6576656c2064656c65676174652063616c6c85870152660819985a5b195960ca1b86880152518791829190845af4913d15610186573d90811161017257610166959661015885601f19601f85011601610227565b91825281943d92013e61024c565b508038808080806100d0565b634e487b7160e01b87526041600452602487fd5b50915061016693945060609161024c565b634e487b7160e01b89526041600452602489fd5b50866100cb565b865162461bcd60e51b815260048101869052602d60248201527f455243313936373a206e657720696d706c656d656e746174696f6e206973206e60448201526c1bdd08184818dbdb9d1c9858dd609a1b6064820152608490fd5b634e487b7160e01b600052604160045260246000fd5b600080fd5b6040519190601f01601f191682016001600160401b0381118382101761020c57604052565b919290156102ae5750815115610260575090565b3b156102695790565b60405162461bcd60e51b815260206004820152601d60248201527f416464726573733a2063616c6c20746f206e6f6e2d636f6e74726163740000006044820152606490fd5b8251909150156102c15750805190602001fd5b6040519062461bcd60e51b82528160208060048301528251908160248401526000935b828510610307575050604492506000838284010152601f80199101168101030190fd5b84810182015186860160440152938101938593506102e456fe60806040523615605f5773ffffffffffffffffffffffffffffffffffffffff7f360894a13ba1a3210667c828492db98dca3e2076cc3735a920a3ca505d382bbc54166000808092368280378136915af43d82803e15605b573d90f35b3d90fd5b73ffffffffffffffffffffffffffffffffffffffff7f360894a13ba1a3210667c828492db98dca3e2076cc3735a920a3ca505d382bbc54166000808092368280378136915af43d82803e15605b573d90f3fea264697066735822122097f3f4333263eda6b886e4a6aa32a5ffb791eb932fbd08cd6064884d09fe45dc64736f6c6343000811003300000000000000000000000091c1863ed54809c45b53bb6090eb437036c792c4"
        }
      ],
      "isFixedGasLimit": false
    },
    {
      "hash": "0x8705b70835ac5ed1570e5848bf50121b697221a978c0a3260a5d5feecadf203c",
      "transactionType": "CALL",
      "contractName": "OurColor",
      "contractAddress": "0x2b7064E9674d767Cd7eFd4aEB150b493F03a4621",
      "function": "setup(bytes)",
      "arguments": [
        "0x0000000000000000000000005de01f75decf8364dbca7b7d75be116389638716000000000000000000000000d81351363b7d80b06e4ec4de7989f0f91e41a846"
      ],
      "transaction": {
        "type": "0x02",
        "from": "0x496593189d0673bd5e85509df3f4c4c26e1a0c84",
        "to": "0x2b7064e9674d767cd7efd4aeb150b493f03a4621",
        "gas": "0x12c3a1",
        "value": "0x0",
        "data": "0x9ded06df000000000000000000000000000000000000000000000000000000000000002000000000000000000000000000000000000000000000000000000000000000400000000000000000000000005de01f75decf8364dbca7b7d75be116389638716000000000000000000000000d81351363b7d80b06e4ec4de7989f0f91e41a846",
        "nonce": "0xe2",
        "accessList": []
      },
      "additionalContracts": [],
      "isFixedGasLimit": false
    },
    {
      "hash": "0x807d6ef77d66a156780604321c757357af4cd4548d6b47760421a887b2b93b45",
      "transactionType": "CALL",
      "contractName": null,
      "contractAddress": "0x5de01F75deCF8364dBca7B7d75bE116389638716",
      "function": null,
      "arguments": null,
      "transaction": {
        "type": "0x02",
        "from": "0x496593189d0673bd5e85509df3f4c4c26e1a0c84",
        "to": "0x5de01f75decf8364dbca7b7d75be116389638716",
        "gas": "0x295d2",
        "value": "0x5855ad1fb2000",
        "data": "0x731133e9000000000000000000000000d81351363b7d80b06e4ec4de7989f0f91e41a8460000000000000000000000000000000000000000000000000000000000000002000000000000000000000000000000000000000000000000000000000000000200000000000000000000000000000000000000000000000000000000000000800000000000000000000000000000000000000000000000000000000000000080000000000000000000000000496593189d0673bd5e85509df3f4c4c26e1a0c840000000000000000000000000000000000000000000000000000000000000040000000000000000000000000000000000000000000000000000000000000000c7465737420636f6d6d656e740000000000000000000000000000000000000000",
        "nonce": "0xe3",
        "accessList": []
      },
      "additionalContracts": [],
      "isFixedGasLimit": false
    },
    {
      "hash": "0x4a9f86bd4cf98da43029b4f2836b72f52f4afcc3ca13197b2ebafbbaaa99ff98",
      "transactionType": "CALL",
      "contractName": null,
      "contractAddress": "0x5de01F75deCF8364dBca7B7d75bE116389638716",
      "function": null,
      "arguments": null,
      "transaction": {
        "type": "0x02",
        "from": "0x496593189d0673bd5e85509df3f4c4c26e1a0c84",
        "to": "0x5de01f75decf8364dbca7b7d75be116389638716",
        "gas": "0x1279e",
        "value": "0x0",
        "data": "0xa22cb4650000000000000000000000002b7064e9674d767cd7efd4aeb150b493f03a46210000000000000000000000000000000000000000000000000000000000000001",
        "nonce": "0xe4",
        "accessList": []
      },
      "additionalContracts": [],
      "isFixedGasLimit": false
    },
    {
      "hash": "0x51e5944494dbdc6ef55beafa04f1baa259fc6aba429971414ee768d0c3ad3380",
      "transactionType": "CALL",
      "contractName": "OurColor",
      "contractAddress": "0x2b7064E9674d767Cd7eFd4aEB150b493F03a4621",
      "function": "createNewColor((uint256,uint256)[]):(uint256)",
      "arguments": [
        "[(2, 2)]"
      ],
      "transaction": {
        "type": "0x02",
        "from": "0x496593189d0673bd5e85509df3f4c4c26e1a0c84",
        "to": "0x2b7064e9674d767cd7efd4aeb150b493f03a4621",
        "gas": "0x5b0ca",
        "value": "0x0",
        "data": "0x66578e580000000000000000000000000000000000000000000000000000000000000020000000000000000000000000000000000000000000000000000000000000000100000000000000000000000000000000000000000000000000000000000000020000000000000000000000000000000000000000000000000000000000000002",
        "nonce": "0xe5",
        "accessList": []
      },
      "additionalContracts": [],
      "isFixedGasLimit": false
    },
    {
      "hash": "0x5c05ab438fb3872a085b99dcf876009da32ca5fcc391c0f270ce33965df0602d",
      "transactionType": "CALL",
      "contractName": null,
      "contractAddress": "0x5de01F75deCF8364dBca7B7d75bE116389638716",
      "function": null,
      "arguments": null,
      "transaction": {
        "type": "0x02",
        "from": "0x496593189d0673bd5e85509df3f4c4c26e1a0c84",
        "to": "0x5de01f75decf8364dbca7b7d75be116389638716",
        "gas": "0x295d2",
        "value": "0x5855ad1fb2000",
        "data": "0x731133e9000000000000000000000000d81351363b7d80b06e4ec4de7989f0f91e41a8460000000000000000000000000000000000000000000000000000000000000005000000000000000000000000000000000000000000000000000000000000000200000000000000000000000000000000000000000000000000000000000000800000000000000000000000000000000000000000000000000000000000000080000000000000000000000000496593189d0673bd5e85509df3f4c4c26e1a0c840000000000000000000000000000000000000000000000000000000000000040000000000000000000000000000000000000000000000000000000000000000c7465737420636f6d6d656e740000000000000000000000000000000000000000",
        "nonce": "0xe6",
        "accessList": []
      },
      "additionalContracts": [],
      "isFixedGasLimit": false
    }
  ],
  "receipts": [
    {
      "transactionHash": "0x151e3d7e2cae787b1ea976fea2456fa0b3940ab068b2a5f56fd6a0d6b18ce1ef",
      "transactionIndex": "0x1",
      "blockHash": "0xf0058def5f3dcf5b37234832a91af427c297f3a7f2348fead2413e2c883e6ca5",
      "blockNumber": "0xd39e6",
      "from": "0x496593189D0673bd5E85509dF3F4c4c26e1A0C84",
      "to": null,
      "cumulativeGasUsed": "0xf701d",
      "gasUsed": "0xe7640",
      "contractAddress": "0x2b7064E9674d767Cd7eFd4aEB150b493F03a4621",
      "logs": [],
      "status": "0x1",
      "logsBloom": "0x00000000000000000000000000000000000000000000000000000000000000000000000000000000000000000000000000000000000000000000000000000000000000000000000000000000000000000000000000000000000000000000000000000000000000000000000000000000000000000000000000000000000000000000000000000000000000000000000000000000000000000000000000000000000000000000000000000000000000000000000000000000000000000000000000000000000000000000000000000000000000000000000000000000000000000000000000000000000000000000000000000000000000000000000000000000",
      "type": "0x2",
      "effectiveGasPrice": "0xb2d05e08"
    },
    {
      "transactionHash": "0xd0119a2f133349006e357abe5342bc8abfa0adc1642bb10658649dbbb4323674",
      "transactionIndex": "0x2",
      "blockHash": "0xf0058def5f3dcf5b37234832a91af427c297f3a7f2348fead2413e2c883e6ca5",
      "blockNumber": "0xd39e6",
      "from": "0x496593189D0673bd5E85509dF3F4c4c26e1A0C84",
      "to": null,
      "cumulativeGasUsed": "0x1f770f",
      "gasUsed": "0x1006f2",
      "contractAddress": "0x8E1e088eD7049B2Ff43AD89D6d443fD066826315",
      "logs": [],
      "status": "0x1",
      "logsBloom": "0x00000000000000000000000000000000000000000000000000000000000000000000000000000000000000000000000000000000000000000000000000000000000000000000000000000000000000000000000000000000000000000000000000000000000000000000000000000000000000000000000000000000000000000000000000000000000000000000000000000000000000000000000000000000000000000000000000000000000000000000000000000000000000000000000000000000000000000000000000000000000000000000000000000000000000000000000000000000000000000000000000000000000000000000000000000000",
      "type": "0x2",
      "effectiveGasPrice": "0xb2d05e08"
    },
    {
      "transactionHash": "0x8bbe1f255b866055e62ba9c4cb81ccf84ae5e954d026b06579489c04b67ef3ba",
      "transactionIndex": "0x3",
      "blockHash": "0xf0058def5f3dcf5b37234832a91af427c297f3a7f2348fead2413e2c883e6ca5",
      "blockNumber": "0xd39e6",
      "from": "0x496593189D0673bd5E85509dF3F4c4c26e1A0C84",
      "to": "0x8E1e088eD7049B2Ff43AD89D6d443fD066826315",
      "cumulativeGasUsed": "0x20de4b",
      "gasUsed": "0x1673c",
      "contractAddress": null,
      "logs": [],
      "status": "0x1",
      "logsBloom": "0x00000000000000000000000000000000000000000000000000000000000000000000000000000000000000000000000000000000000000000000000000000000000000000000000000000000000000000000000000000000000000000000000000000000000000000000000000000000000000000000000000000000000000000000000000000000000000000000000000000000000000000000000000000000000000000000000000000000000000000000000000000000000000000000000000000000000000000000000000000000000000000000000000000000000000000000000000000000000000000000000000000000000000000000000000000000",
      "type": "0x2",
      "effectiveGasPrice": "0xb2d05e08"
    },
    {
      "transactionHash": "0x9733fc66cd1f99130e013a5fa38d64b4a43e30a3f7ba86bdb5947ad81287565a",
      "transactionIndex": "0x4",
      "blockHash": "0xf0058def5f3dcf5b37234832a91af427c297f3a7f2348fead2413e2c883e6ca5",
      "blockNumber": "0xd39e6",
      "from": "0x496593189D0673bd5E85509dF3F4c4c26e1A0C84",
      "to": "0x6a357139C1bcDcf0B3AB9bC447932dDdcb956703",
      "cumulativeGasUsed": "0x273536",
      "gasUsed": "0x656eb",
      "contractAddress": null,
      "logs": [
        {
          "address": "0x5de01F75deCF8364dBca7B7d75bE116389638716",
          "topics": [
            "0xbc7cd75a20ee27fd9adebab32041f755214dbc6bffa90cc0225b39da2e5c2d3b",
            "0x00000000000000000000000091c1863ed54809c45b53bb6090eb437036c792c4"
          ],
          "data": "0x",
          "blockHash": "0xf0058def5f3dcf5b37234832a91af427c297f3a7f2348fead2413e2c883e6ca5",
          "blockNumber": "0xd39e6",
          "transactionHash": "0x9733fc66cd1f99130e013a5fa38d64b4a43e30a3f7ba86bdb5947ad81287565a",
          "transactionIndex": "0x4",
          "logIndex": "0x0",
          "removed": false
        },
        {
          "address": "0x6a357139C1bcDcf0B3AB9bC447932dDdcb956703",
          "topics": [
            "0xa45800684f65ae010ceb4385eceaed88dec7f6a6bcbe11f7ffd8bd24dd2653f4",
            "0x0000000000000000000000005de01f75decf8364dbca7b7d75be116389638716",
            "0x000000000000000000000000496593189d0673bd5e85509df3f4c4c26e1a0c84",
            "0x000000000000000000000000496593189d0673bd5e85509df3f4c4c26e1a0c84"
          ],
          "data": "0x00000000000000000000000000000000000000000000000000000000000000a000000000000000000000000000000000000000000000000000000000000000c000000000000000000000000000000000000000000000000000000000000000000000000000000000000000000000000000000000000000000000000000000000000000000000000000000000496593189d0673bd5e85509df3f4c4c26e1a0c84000000000000000000000000000000000000000000000000000000000000000000000000000000000000000000000000000000000000000000000000000000094f757220436f6c6f720000000000000000000000000000000000000000000000",
          "blockHash": "0xf0058def5f3dcf5b37234832a91af427c297f3a7f2348fead2413e2c883e6ca5",
          "blockNumber": "0xd39e6",
          "transactionHash": "0x9733fc66cd1f99130e013a5fa38d64b4a43e30a3f7ba86bdb5947ad81287565a",
          "transactionIndex": "0x4",
          "logIndex": "0x1",
          "removed": false
        },
        {
          "address": "0x5de01F75deCF8364dBca7B7d75bE116389638716",
          "topics": [
            "0x35fb03d0d293ef5b362761900725ce891f8f766b5a662cdd445372355448e7ca",
            "0x0000000000000000000000000000000000000000000000000000000000000000",
            "0x000000000000000000000000496593189d0673bd5e85509df3f4c4c26e1a0c84",
            "0x0000000000000000000000000000000000000000000000000000000000000002"
          ],
          "data": "0x",
          "blockHash": "0xf0058def5f3dcf5b37234832a91af427c297f3a7f2348fead2413e2c883e6ca5",
          "blockNumber": "0xd39e6",
          "transactionHash": "0x9733fc66cd1f99130e013a5fa38d64b4a43e30a3f7ba86bdb5947ad81287565a",
          "transactionIndex": "0x4",
          "logIndex": "0x2",
          "removed": false
        },
        {
          "address": "0x5de01F75deCF8364dBca7B7d75bE116389638716",
          "topics": [
            "0x5086d1bcea28999da9875111e3592688fbfa821db63214c695ca35768080c2fe",
            "0x0000000000000000000000006a357139c1bcdcf0b3ab9bc447932dddcb956703",
            "0x0000000000000000000000000000000000000000000000000000000000000000"
          ],
          "data": "0x00000000000000000000000000000000000000000000000000000000000000200000000000000000000000000000000000000000000000000000000000000060000000000000000000000000000000000000000000000000000000000000000000000000000000000000000000000000000000000000000000000000000000000000000000000000000000000000000000000000000000000000000000000000",
          "blockHash": "0xf0058def5f3dcf5b37234832a91af427c297f3a7f2348fead2413e2c883e6ca5",
          "blockNumber": "0xd39e6",
          "transactionHash": "0x9733fc66cd1f99130e013a5fa38d64b4a43e30a3f7ba86bdb5947ad81287565a",
          "transactionIndex": "0x4",
          "logIndex": "0x3",
          "removed": false
        },
        {
          "address": "0x5de01F75deCF8364dBca7B7d75bE116389638716",
          "topics": [
            "0x5837d55897cfc337f160a71d7b63a047abd50a3a8834f1c5d70f338846358c6d",
            "0x0000000000000000000000000000000000000000000000000000000000000000",
            "0x0000000000000000000000006a357139c1bcdcf0b3ab9bc447932dddcb956703"
          ],
          "data": "0x00000000000000000000000000000000000000000000000000000000000000000000000000000000000000000000000000000000000000000000000000000000000000000000000000000000496593189d0673bd5e85509df3f4c4c26e1a0c84",
          "blockHash": "0xf0058def5f3dcf5b37234832a91af427c297f3a7f2348fead2413e2c883e6ca5",
          "blockNumber": "0xd39e6",
          "transactionHash": "0x9733fc66cd1f99130e013a5fa38d64b4a43e30a3f7ba86bdb5947ad81287565a",
          "transactionIndex": "0x4",
          "logIndex": "0x4",
          "removed": false
        },
        {
          "address": "0x5de01F75deCF8364dBca7B7d75bE116389638716",
          "topics": [
            "0x8be0079c531659141344cd1fd0a4f28419497f9722a3daafe3b4186f6b6457e0"
          ],
          "data": "0x0000000000000000000000000000000000000000000000000000000000000000000000000000000000000000496593189d0673bd5e85509df3f4c4c26e1a0c84",
          "blockHash": "0xf0058def5f3dcf5b37234832a91af427c297f3a7f2348fead2413e2c883e6ca5",
          "blockNumber": "0xd39e6",
          "transactionHash": "0x9733fc66cd1f99130e013a5fa38d64b4a43e30a3f7ba86bdb5947ad81287565a",
          "transactionIndex": "0x4",
          "logIndex": "0x5",
          "removed": false
        },
        {
          "address": "0x5de01F75deCF8364dBca7B7d75bE116389638716",
          "topics": [
            "0x3be6d3a1d957610f7e900c66889b874cdc9f0c22901aa8be6ec3d2d04c14ca0f",
            "0x0000000000000000000000006a357139c1bcdcf0b3ab9bc447932dddcb956703",
            "0x0000000000000000000000000000000000000000000000000000000000000000"
          ],
          "data": "0x000000000000000000000000496593189d0673bd5e85509df3f4c4c26e1a0c8400000000000000000000000000000000000000000000000000000000000000000000000000000000000000000000000000000000000000000000000000000000000000000000000000000000000000000000000000000000000000000000000000000000000000000000000000000000000000000000000000000000000000000000000000000000000000000000000000000000000000000000000000000000",
          "blockHash": "0xf0058def5f3dcf5b37234832a91af427c297f3a7f2348fead2413e2c883e6ca5",
          "blockNumber": "0xd39e6",
          "transactionHash": "0x9733fc66cd1f99130e013a5fa38d64b4a43e30a3f7ba86bdb5947ad81287565a",
          "transactionIndex": "0x4",
          "logIndex": "0x6",
          "removed": false
        },
        {
          "address": "0x5de01F75deCF8364dBca7B7d75bE116389638716",
          "topics": [
            "0x3be6d3a1d957610f7e900c66889b874cdc9f0c22901aa8be6ec3d2d04c14ca0f",
            "0x0000000000000000000000006a357139c1bcdcf0b3ab9bc447932dddcb956703",
            "0x0000000000000000000000000000000000000000000000000000000000000001"
          ],
          "data": "0x000000000000000000000000496593189d0673bd5e85509df3f4c4c26e1a0c840000000000000000000000000000000000000000000000000000000000000000000000000000000000000000496593189d0673bd5e85509df3f4c4c26e1a0c84000000000000000000000000000000000000000000000000000000000000000000000000000000000000000000000000000000000000000000000000000000000000000000000000000000000000000000000000000000000000000000000000",
          "blockHash": "0xf0058def5f3dcf5b37234832a91af427c297f3a7f2348fead2413e2c883e6ca5",
          "blockNumber": "0xd39e6",
          "transactionHash": "0x9733fc66cd1f99130e013a5fa38d64b4a43e30a3f7ba86bdb5947ad81287565a",
          "transactionIndex": "0x4",
          "logIndex": "0x7",
          "removed": false
        },
        {
          "address": "0x5de01F75deCF8364dBca7B7d75bE116389638716",
          "topics": [
            "0x35fb03d0d293ef5b362761900725ce891f8f766b5a662cdd445372355448e7ca",
            "0x0000000000000000000000000000000000000000000000000000000000000000",
            "0x0000000000000000000000006a357139c1bcdcf0b3ab9bc447932dddcb956703",
            "0x0000000000000000000000000000000000000000000000000000000000000002"
          ],
          "data": "0x",
          "blockHash": "0xf0058def5f3dcf5b37234832a91af427c297f3a7f2348fead2413e2c883e6ca5",
          "blockNumber": "0xd39e6",
          "transactionHash": "0x9733fc66cd1f99130e013a5fa38d64b4a43e30a3f7ba86bdb5947ad81287565a",
          "transactionIndex": "0x4",
          "logIndex": "0x8",
          "removed": false
        },
        {
          "address": "0x5de01F75deCF8364dBca7B7d75bE116389638716",
          "topics": [
            "0x5010f780a0de79bcfb9f3d6fec3cfe29758ef5c5800d575af709bc590bd78ade",
            "0x0000000000000000000000000000000000000000000000000000000000000000",
            "0x0000000000000000000000008e1e088ed7049b2ff43ad89d6d443fd066826315",
            "0x0000000000000000000000006a357139c1bcdcf0b3ab9bc447932dddcb956703"
          ],
          "data": "0x",
          "blockHash": "0xf0058def5f3dcf5b37234832a91af427c297f3a7f2348fead2413e2c883e6ca5",
          "blockNumber": "0xd39e6",
          "transactionHash": "0x9733fc66cd1f99130e013a5fa38d64b4a43e30a3f7ba86bdb5947ad81287565a",
          "transactionIndex": "0x4",
          "logIndex": "0x9",
          "removed": false
        },
        {
          "address": "0x5de01F75deCF8364dBca7B7d75bE116389638716",
          "topics": [
            "0x56e810c8cae84731149f628981d25769a084570b9ba6eebf3c32879e3dce5609"
          ],
          "data": "0x0000000000000000000000008e1e088ed7049b2ff43ad89d6d443fd066826315",
          "blockHash": "0xf0058def5f3dcf5b37234832a91af427c297f3a7f2348fead2413e2c883e6ca5",
          "blockNumber": "0xd39e6",
          "transactionHash": "0x9733fc66cd1f99130e013a5fa38d64b4a43e30a3f7ba86bdb5947ad81287565a",
          "transactionIndex": "0x4",
          "logIndex": "0xa",
          "removed": false
        },
        {
          "address": "0x5de01F75deCF8364dBca7B7d75bE116389638716",
          "topics": [
            "0x35fb03d0d293ef5b362761900725ce891f8f766b5a662cdd445372355448e7ca",
            "0x0000000000000000000000000000000000000000000000000000000000000000",
            "0x0000000000000000000000002b7064e9674d767cd7efd4aeb150b493f03a4621",
            "0x0000000000000000000000000000000000000000000000000000000000000002"
          ],
          "data": "0x",
          "blockHash": "0xf0058def5f3dcf5b37234832a91af427c297f3a7f2348fead2413e2c883e6ca5",
          "blockNumber": "0xd39e6",
          "transactionHash": "0x9733fc66cd1f99130e013a5fa38d64b4a43e30a3f7ba86bdb5947ad81287565a",
          "transactionIndex": "0x4",
          "logIndex": "0xb",
          "removed": false
        },
        {
          "address": "0x5de01F75deCF8364dBca7B7d75bE116389638716",
          "topics": [
            "0x35fb03d0d293ef5b362761900725ce891f8f766b5a662cdd445372355448e7ca",
            "0x0000000000000000000000000000000000000000000000000000000000000000",
            "0x0000000000000000000000006a357139c1bcdcf0b3ab9bc447932dddcb956703",
            "0x0000000000000000000000000000000000000000000000000000000000000000"
          ],
          "data": "0x",
          "blockHash": "0xf0058def5f3dcf5b37234832a91af427c297f3a7f2348fead2413e2c883e6ca5",
          "blockNumber": "0xd39e6",
          "transactionHash": "0x9733fc66cd1f99130e013a5fa38d64b4a43e30a3f7ba86bdb5947ad81287565a",
          "transactionIndex": "0x4",
          "logIndex": "0xc",
          "removed": false
        },
        {
          "address": "0x5de01F75deCF8364dBca7B7d75bE116389638716",
          "topics": [
            "0x7f26b83ff96e1f2b6a682f133852f6798a09c465da95921460cefb3847402498"
          ],
          "data": "0x0000000000000000000000000000000000000000000000000000000000000001",
          "blockHash": "0xf0058def5f3dcf5b37234832a91af427c297f3a7f2348fead2413e2c883e6ca5",
          "blockNumber": "0xd39e6",
          "transactionHash": "0x9733fc66cd1f99130e013a5fa38d64b4a43e30a3f7ba86bdb5947ad81287565a",
          "transactionIndex": "0x4",
          "logIndex": "0xd",
          "removed": false
        }
      ],
      "status": "0x1",
      "logsBloom": "0x04000000000000000000000000800004440000000040000080800002000000400000000080000400000000000000000020020000000000000000000000040002000000400000800000000000000002000001000000044800000000000000000000000000020000000400028000000c00000020000000080000000000000100400000000000000000000000000000000000000000800080880000000000000000000000004000200000004100020400000000040000000010000000000000802000000020000000004000000000044080080000120000000400000000000060000000000000000000000000000000000000000000008020008000010000000000",
      "type": "0x2",
      "effectiveGasPrice": "0xb2d05e08"
    },
    {
      "transactionHash": "0x8705b70835ac5ed1570e5848bf50121b697221a978c0a3260a5d5feecadf203c",
      "transactionIndex": "0x5",
      "blockHash": "0xf0058def5f3dcf5b37234832a91af427c297f3a7f2348fead2413e2c883e6ca5",
      "blockNumber": "0xd39e6",
      "from": "0x496593189D0673bd5E85509dF3F4c4c26e1A0C84",
      "to": "0x2b7064E9674d767Cd7eFd4aEB150b493F03a4621",
      "cumulativeGasUsed": "0x3409bf",
      "gasUsed": "0xcd489",
      "contractAddress": null,
      "logs": [
        {
          "address": "0x5de01F75deCF8364dBca7B7d75bE116389638716",
          "topics": [
            "0x5086d1bcea28999da9875111e3592688fbfa821db63214c695ca35768080c2fe",
            "0x0000000000000000000000002b7064e9674d767cd7efd4aeb150b493f03a4621",
            "0x0000000000000000000000000000000000000000000000000000000000000001"
          ],
          "data": "0x00000000000000000000000000000000000000000000000000000000000000200000000000000000000000000000000000000000000000000000000000000060ffffffffffffffffffffffffffffffffffffffffffffffffffffffffffffffff00000000000000000000000000000000000000000000000000000000000000000000000000000000000000000000000000000000000000000000000000000000",
          "blockHash": "0xf0058def5f3dcf5b37234832a91af427c297f3a7f2348fead2413e2c883e6ca5",
          "blockNumber": "0xd39e6",
          "transactionHash": "0x8705b70835ac5ed1570e5848bf50121b697221a978c0a3260a5d5feecadf203c",
          "transactionIndex": "0x5",
          "logIndex": "0xe",
          "removed": false
        },
        {
          "address": "0x5de01F75deCF8364dBca7B7d75bE116389638716",
          "topics": [
            "0x35fb03d0d293ef5b362761900725ce891f8f766b5a662cdd445372355448e7ca",
            "0x0000000000000000000000000000000000000000000000000000000000000001",
            "0x0000000000000000000000002b7064e9674d767cd7efd4aeb150b493f03a4621",
            "0x0000000000000000000000000000000000000000000000000000000000000002"
          ],
          "data": "0x",
          "blockHash": "0xf0058def5f3dcf5b37234832a91af427c297f3a7f2348fead2413e2c883e6ca5",
          "blockNumber": "0xd39e6",
          "transactionHash": "0x8705b70835ac5ed1570e5848bf50121b697221a978c0a3260a5d5feecadf203c",
          "transactionIndex": "0x5",
          "logIndex": "0xf",
          "removed": false
        },
        {
          "address": "0x5de01F75deCF8364dBca7B7d75bE116389638716",
          "topics": [
            "0x1b944478023872bf91b25a13fdba3a686fdb1bf4dbb872f850240fad4b8cc068",
            "0x0000000000000000000000000000000000000000000000000000000000000001",
            "0x0000000000000000000000002b7064e9674d767cd7efd4aeb150b493f03a4621"
          ],
          "data": "0x0000000000000000000000000000000000000000000000000000000000000040ffffffffffffffffffffffffffffffffffffffffffffffffffffffffffffffff0000000000000000000000000000000000000000000000000000000000000000",
          "blockHash": "0xf0058def5f3dcf5b37234832a91af427c297f3a7f2348fead2413e2c883e6ca5",
          "blockNumber": "0xd39e6",
          "transactionHash": "0x8705b70835ac5ed1570e5848bf50121b697221a978c0a3260a5d5feecadf203c",
          "transactionIndex": "0x5",
          "logIndex": "0x10",
          "removed": false
        },
        {
          "address": "0x5de01F75deCF8364dBca7B7d75bE116389638716",
          "topics": [
            "0x35fb03d0d293ef5b362761900725ce891f8f766b5a662cdd445372355448e7ca",
            "0x0000000000000000000000000000000000000000000000000000000000000001",
            "0x000000000000000000000000d81351363b7d80b06e4ec4de7989f0f91e41a846",
            "0x0000000000000000000000000000000000000000000000000000000000000004"
          ],
          "data": "0x",
          "blockHash": "0xf0058def5f3dcf5b37234832a91af427c297f3a7f2348fead2413e2c883e6ca5",
          "blockNumber": "0xd39e6",
          "transactionHash": "0x8705b70835ac5ed1570e5848bf50121b697221a978c0a3260a5d5feecadf203c",
          "transactionIndex": "0x5",
          "logIndex": "0x11",
          "removed": false
        },
        {
          "address": "0xd81351363b7d80b06E4Ec4De7989f0f91e41A846",
          "topics": [
            "0x5e4ad74f00b9a9d4a8452359a7fbd80cc5a6930a9df5e5b797ddc024b24b252c",
            "0x0000000000000000000000005de01f75decf8364dbca7b7d75be116389638716",
            "0x0000000000000000000000000000000000000000000000000000000000000001"
          ],
          "data": "0x0000000000000000000000000000000000000000000000000000000000000000000000000000000000000000000000000000000000000000ffffffffffffffff000000000000000000000000000000000000000000000000000000000000000000000000000000000000000000000000000000000000000000000000000000000000000000000000000000000000000000000000000000000000000000000000",
          "blockHash": "0xf0058def5f3dcf5b37234832a91af427c297f3a7f2348fead2413e2c883e6ca5",
          "blockNumber": "0xd39e6",
          "transactionHash": "0x8705b70835ac5ed1570e5848bf50121b697221a978c0a3260a5d5feecadf203c",
          "transactionIndex": "0x5",
          "logIndex": "0x12",
          "removed": false
        },
        {
          "address": "0x2b7064E9674d767Cd7eFd4aEB150b493F03a4621",
          "topics": [
            "0x7af7f639f577383f0a8a8478127a8ae22234d6e7dd79d6bc411f54efb4f9e689",
            "0x000000000000000000000000496593189d0673bd5e85509df3f4c4c26e1a0c84"
          ],
          "data": "0x0000000000000000000000000000000000000000000000000000000000000001000000000000000000000000000000000000000000000000000000000000000000000000000000000000000000000000000000000000000000000000000000000000000000000000000000000000000000000000000000000000000000000000",
          "blockHash": "0xf0058def5f3dcf5b37234832a91af427c297f3a7f2348fead2413e2c883e6ca5",
          "blockNumber": "0xd39e6",
          "transactionHash": "0x8705b70835ac5ed1570e5848bf50121b697221a978c0a3260a5d5feecadf203c",
          "transactionIndex": "0x5",
          "logIndex": "0x13",
          "removed": false
        },
        {
          "address": "0x5de01F75deCF8364dBca7B7d75bE116389638716",
          "topics": [
            "0x5086d1bcea28999da9875111e3592688fbfa821db63214c695ca35768080c2fe",
            "0x0000000000000000000000002b7064e9674d767cd7efd4aeb150b493f03a4621",
            "0x0000000000000000000000000000000000000000000000000000000000000002"
          ],
          "data": "0x00000000000000000000000000000000000000000000000000000000000000200000000000000000000000000000000000000000000000000000000000000060ffffffffffffffffffffffffffffffffffffffffffffffffffffffffffffffff00000000000000000000000000000000000000000000000000000000000000000000000000000000000000000000000000000000000000000000000000000000",
          "blockHash": "0xf0058def5f3dcf5b37234832a91af427c297f3a7f2348fead2413e2c883e6ca5",
          "blockNumber": "0xd39e6",
          "transactionHash": "0x8705b70835ac5ed1570e5848bf50121b697221a978c0a3260a5d5feecadf203c",
          "transactionIndex": "0x5",
          "logIndex": "0x14",
          "removed": false
        },
        {
          "address": "0x5de01F75deCF8364dBca7B7d75bE116389638716",
          "topics": [
            "0x35fb03d0d293ef5b362761900725ce891f8f766b5a662cdd445372355448e7ca",
            "0x0000000000000000000000000000000000000000000000000000000000000002",
            "0x0000000000000000000000002b7064e9674d767cd7efd4aeb150b493f03a4621",
            "0x0000000000000000000000000000000000000000000000000000000000000002"
          ],
          "data": "0x",
          "blockHash": "0xf0058def5f3dcf5b37234832a91af427c297f3a7f2348fead2413e2c883e6ca5",
          "blockNumber": "0xd39e6",
          "transactionHash": "0x8705b70835ac5ed1570e5848bf50121b697221a978c0a3260a5d5feecadf203c",
          "transactionIndex": "0x5",
          "logIndex": "0x15",
          "removed": false
        },
        {
          "address": "0x5de01F75deCF8364dBca7B7d75bE116389638716",
          "topics": [
            "0x1b944478023872bf91b25a13fdba3a686fdb1bf4dbb872f850240fad4b8cc068",
            "0x0000000000000000000000000000000000000000000000000000000000000002",
            "0x0000000000000000000000002b7064e9674d767cd7efd4aeb150b493f03a4621"
          ],
          "data": "0x0000000000000000000000000000000000000000000000000000000000000040ffffffffffffffffffffffffffffffffffffffffffffffffffffffffffffffff0000000000000000000000000000000000000000000000000000000000000000",
          "blockHash": "0xf0058def5f3dcf5b37234832a91af427c297f3a7f2348fead2413e2c883e6ca5",
          "blockNumber": "0xd39e6",
          "transactionHash": "0x8705b70835ac5ed1570e5848bf50121b697221a978c0a3260a5d5feecadf203c",
          "transactionIndex": "0x5",
          "logIndex": "0x16",
          "removed": false
        },
        {
          "address": "0x5de01F75deCF8364dBca7B7d75bE116389638716",
          "topics": [
            "0x35fb03d0d293ef5b362761900725ce891f8f766b5a662cdd445372355448e7ca",
            "0x0000000000000000000000000000000000000000000000000000000000000002",
            "0x000000000000000000000000d81351363b7d80b06e4ec4de7989f0f91e41a846",
            "0x0000000000000000000000000000000000000000000000000000000000000004"
          ],
          "data": "0x",
          "blockHash": "0xf0058def5f3dcf5b37234832a91af427c297f3a7f2348fead2413e2c883e6ca5",
          "blockNumber": "0xd39e6",
          "transactionHash": "0x8705b70835ac5ed1570e5848bf50121b697221a978c0a3260a5d5feecadf203c",
          "transactionIndex": "0x5",
          "logIndex": "0x17",
          "removed": false
        },
        {
          "address": "0xd81351363b7d80b06E4Ec4De7989f0f91e41A846",
          "topics": [
            "0x5e4ad74f00b9a9d4a8452359a7fbd80cc5a6930a9df5e5b797ddc024b24b252c",
            "0x0000000000000000000000005de01f75decf8364dbca7b7d75be116389638716",
            "0x0000000000000000000000000000000000000000000000000000000000000002"
          ],
          "data": "0x0000000000000000000000000000000000000000000000000000000000000000000000000000000000000000000000000000000000000000ffffffffffffffff000000000000000000000000000000000000000000000000000000000000000000000000000000000000000000000000000000000000000000000000000000000000000000000000000000000000000000000000000000000000000000000000",
          "blockHash": "0xf0058def5f3dcf5b37234832a91af427c297f3a7f2348fead2413e2c883e6ca5",
          "blockNumber": "0xd39e6",
          "transactionHash": "0x8705b70835ac5ed1570e5848bf50121b697221a978c0a3260a5d5feecadf203c",
          "transactionIndex": "0x5",
          "logIndex": "0x18",
          "removed": false
        },
        {
          "address": "0x2b7064E9674d767Cd7eFd4aEB150b493F03a4621",
          "topics": [
            "0x7af7f639f577383f0a8a8478127a8ae22234d6e7dd79d6bc411f54efb4f9e689",
            "0x000000000000000000000000496593189d0673bd5e85509df3f4c4c26e1a0c84"
          ],
          "data": "0x0000000000000000000000000000000000000000000000000000000000000002000000000000000000000000000000000000000000000000000000000000000100000000000000000000000000000000000000000000000000000000000000000000000000000000000000000000000000000000000000000000000000000000",
          "blockHash": "0xf0058def5f3dcf5b37234832a91af427c297f3a7f2348fead2413e2c883e6ca5",
          "blockNumber": "0xd39e6",
          "transactionHash": "0x8705b70835ac5ed1570e5848bf50121b697221a978c0a3260a5d5feecadf203c",
          "transactionIndex": "0x5",
          "logIndex": "0x19",
          "removed": false
        },
        {
          "address": "0x5de01F75deCF8364dBca7B7d75bE116389638716",
          "topics": [
            "0x5086d1bcea28999da9875111e3592688fbfa821db63214c695ca35768080c2fe",
            "0x0000000000000000000000002b7064e9674d767cd7efd4aeb150b493f03a4621",
            "0x0000000000000000000000000000000000000000000000000000000000000003"
          ],
          "data": "0x00000000000000000000000000000000000000000000000000000000000000200000000000000000000000000000000000000000000000000000000000000060ffffffffffffffffffffffffffffffffffffffffffffffffffffffffffffffff00000000000000000000000000000000000000000000000000000000000000000000000000000000000000000000000000000000000000000000000000000000",
          "blockHash": "0xf0058def5f3dcf5b37234832a91af427c297f3a7f2348fead2413e2c883e6ca5",
          "blockNumber": "0xd39e6",
          "transactionHash": "0x8705b70835ac5ed1570e5848bf50121b697221a978c0a3260a5d5feecadf203c",
          "transactionIndex": "0x5",
          "logIndex": "0x1a",
          "removed": false
        },
        {
          "address": "0x5de01F75deCF8364dBca7B7d75bE116389638716",
          "topics": [
            "0x35fb03d0d293ef5b362761900725ce891f8f766b5a662cdd445372355448e7ca",
            "0x0000000000000000000000000000000000000000000000000000000000000003",
            "0x0000000000000000000000002b7064e9674d767cd7efd4aeb150b493f03a4621",
            "0x0000000000000000000000000000000000000000000000000000000000000002"
          ],
          "data": "0x",
          "blockHash": "0xf0058def5f3dcf5b37234832a91af427c297f3a7f2348fead2413e2c883e6ca5",
          "blockNumber": "0xd39e6",
          "transactionHash": "0x8705b70835ac5ed1570e5848bf50121b697221a978c0a3260a5d5feecadf203c",
          "transactionIndex": "0x5",
          "logIndex": "0x1b",
          "removed": false
        },
        {
          "address": "0x5de01F75deCF8364dBca7B7d75bE116389638716",
          "topics": [
            "0x1b944478023872bf91b25a13fdba3a686fdb1bf4dbb872f850240fad4b8cc068",
            "0x0000000000000000000000000000000000000000000000000000000000000003",
            "0x0000000000000000000000002b7064e9674d767cd7efd4aeb150b493f03a4621"
          ],
          "data": "0x0000000000000000000000000000000000000000000000000000000000000040ffffffffffffffffffffffffffffffffffffffffffffffffffffffffffffffff0000000000000000000000000000000000000000000000000000000000000000",
          "blockHash": "0xf0058def5f3dcf5b37234832a91af427c297f3a7f2348fead2413e2c883e6ca5",
          "blockNumber": "0xd39e6",
          "transactionHash": "0x8705b70835ac5ed1570e5848bf50121b697221a978c0a3260a5d5feecadf203c",
          "transactionIndex": "0x5",
          "logIndex": "0x1c",
          "removed": false
        },
        {
          "address": "0x5de01F75deCF8364dBca7B7d75bE116389638716",
          "topics": [
            "0x35fb03d0d293ef5b362761900725ce891f8f766b5a662cdd445372355448e7ca",
            "0x0000000000000000000000000000000000000000000000000000000000000003",
            "0x000000000000000000000000d81351363b7d80b06e4ec4de7989f0f91e41a846",
            "0x0000000000000000000000000000000000000000000000000000000000000004"
          ],
          "data": "0x",
          "blockHash": "0xf0058def5f3dcf5b37234832a91af427c297f3a7f2348fead2413e2c883e6ca5",
          "blockNumber": "0xd39e6",
          "transactionHash": "0x8705b70835ac5ed1570e5848bf50121b697221a978c0a3260a5d5feecadf203c",
          "transactionIndex": "0x5",
          "logIndex": "0x1d",
          "removed": false
        },
        {
          "address": "0xd81351363b7d80b06E4Ec4De7989f0f91e41A846",
          "topics": [
            "0x5e4ad74f00b9a9d4a8452359a7fbd80cc5a6930a9df5e5b797ddc024b24b252c",
            "0x0000000000000000000000005de01f75decf8364dbca7b7d75be116389638716",
            "0x0000000000000000000000000000000000000000000000000000000000000003"
          ],
          "data": "0x0000000000000000000000000000000000000000000000000000000000000000000000000000000000000000000000000000000000000000ffffffffffffffff000000000000000000000000000000000000000000000000000000000000000000000000000000000000000000000000000000000000000000000000000000000000000000000000000000000000000000000000000000000000000000000000",
          "blockHash": "0xf0058def5f3dcf5b37234832a91af427c297f3a7f2348fead2413e2c883e6ca5",
          "blockNumber": "0xd39e6",
          "transactionHash": "0x8705b70835ac5ed1570e5848bf50121b697221a978c0a3260a5d5feecadf203c",
          "transactionIndex": "0x5",
          "logIndex": "0x1e",
          "removed": false
        },
        {
          "address": "0x2b7064E9674d767Cd7eFd4aEB150b493F03a4621",
          "topics": [
            "0x7af7f639f577383f0a8a8478127a8ae22234d6e7dd79d6bc411f54efb4f9e689",
            "0x000000000000000000000000496593189d0673bd5e85509df3f4c4c26e1a0c84"
          ],
          "data": "0x0000000000000000000000000000000000000000000000000000000000000003000000000000000000000000000000000000000000000000000000000000000000000000000000000000000000000000000000000000000000000000000000010000000000000000000000000000000000000000000000000000000000000000",
          "blockHash": "0xf0058def5f3dcf5b37234832a91af427c297f3a7f2348fead2413e2c883e6ca5",
          "blockNumber": "0xd39e6",
          "transactionHash": "0x8705b70835ac5ed1570e5848bf50121b697221a978c0a3260a5d5feecadf203c",
          "transactionIndex": "0x5",
          "logIndex": "0x1f",
          "removed": false
        },
        {
          "address": "0x5de01F75deCF8364dBca7B7d75bE116389638716",
          "topics": [
            "0x5086d1bcea28999da9875111e3592688fbfa821db63214c695ca35768080c2fe",
            "0x0000000000000000000000002b7064e9674d767cd7efd4aeb150b493f03a4621",
            "0x0000000000000000000000000000000000000000000000000000000000000004"
          ],
          "data": "0x00000000000000000000000000000000000000000000000000000000000000200000000000000000000000000000000000000000000000000000000000000060ffffffffffffffffffffffffffffffffffffffffffffffffffffffffffffffff00000000000000000000000000000000000000000000000000000000000000000000000000000000000000000000000000000000000000000000000000000000",
          "blockHash": "0xf0058def5f3dcf5b37234832a91af427c297f3a7f2348fead2413e2c883e6ca5",
          "blockNumber": "0xd39e6",
          "transactionHash": "0x8705b70835ac5ed1570e5848bf50121b697221a978c0a3260a5d5feecadf203c",
          "transactionIndex": "0x5",
          "logIndex": "0x20",
          "removed": false
        },
        {
          "address": "0x5de01F75deCF8364dBca7B7d75bE116389638716",
          "topics": [
            "0x35fb03d0d293ef5b362761900725ce891f8f766b5a662cdd445372355448e7ca",
            "0x0000000000000000000000000000000000000000000000000000000000000004",
            "0x0000000000000000000000002b7064e9674d767cd7efd4aeb150b493f03a4621",
            "0x0000000000000000000000000000000000000000000000000000000000000002"
          ],
          "data": "0x",
          "blockHash": "0xf0058def5f3dcf5b37234832a91af427c297f3a7f2348fead2413e2c883e6ca5",
          "blockNumber": "0xd39e6",
          "transactionHash": "0x8705b70835ac5ed1570e5848bf50121b697221a978c0a3260a5d5feecadf203c",
          "transactionIndex": "0x5",
          "logIndex": "0x21",
          "removed": false
        },
        {
          "address": "0x5de01F75deCF8364dBca7B7d75bE116389638716",
          "topics": [
            "0x1b944478023872bf91b25a13fdba3a686fdb1bf4dbb872f850240fad4b8cc068",
            "0x0000000000000000000000000000000000000000000000000000000000000004",
            "0x0000000000000000000000002b7064e9674d767cd7efd4aeb150b493f03a4621"
          ],
          "data": "0x0000000000000000000000000000000000000000000000000000000000000040ffffffffffffffffffffffffffffffffffffffffffffffffffffffffffffffff0000000000000000000000000000000000000000000000000000000000000000",
          "blockHash": "0xf0058def5f3dcf5b37234832a91af427c297f3a7f2348fead2413e2c883e6ca5",
          "blockNumber": "0xd39e6",
          "transactionHash": "0x8705b70835ac5ed1570e5848bf50121b697221a978c0a3260a5d5feecadf203c",
          "transactionIndex": "0x5",
          "logIndex": "0x22",
          "removed": false
        },
        {
          "address": "0x5de01F75deCF8364dBca7B7d75bE116389638716",
          "topics": [
            "0x35fb03d0d293ef5b362761900725ce891f8f766b5a662cdd445372355448e7ca",
            "0x0000000000000000000000000000000000000000000000000000000000000004",
            "0x000000000000000000000000d81351363b7d80b06e4ec4de7989f0f91e41a846",
            "0x0000000000000000000000000000000000000000000000000000000000000004"
          ],
          "data": "0x",
          "blockHash": "0xf0058def5f3dcf5b37234832a91af427c297f3a7f2348fead2413e2c883e6ca5",
          "blockNumber": "0xd39e6",
          "transactionHash": "0x8705b70835ac5ed1570e5848bf50121b697221a978c0a3260a5d5feecadf203c",
          "transactionIndex": "0x5",
          "logIndex": "0x23",
          "removed": false
        },
        {
          "address": "0xd81351363b7d80b06E4Ec4De7989f0f91e41A846",
          "topics": [
            "0x5e4ad74f00b9a9d4a8452359a7fbd80cc5a6930a9df5e5b797ddc024b24b252c",
            "0x0000000000000000000000005de01f75decf8364dbca7b7d75be116389638716",
            "0x0000000000000000000000000000000000000000000000000000000000000004"
          ],
          "data": "0x0000000000000000000000000000000000000000000000000000000000000000000000000000000000000000000000000000000000000000ffffffffffffffff000000000000000000000000000000000000000000000000000000000000000000000000000000000000000000000000000000000000000000000000000000000000000000000000000000000000000000000000000000000000000000000000",
          "blockHash": "0xf0058def5f3dcf5b37234832a91af427c297f3a7f2348fead2413e2c883e6ca5",
          "blockNumber": "0xd39e6",
          "transactionHash": "0x8705b70835ac5ed1570e5848bf50121b697221a978c0a3260a5d5feecadf203c",
          "transactionIndex": "0x5",
          "logIndex": "0x24",
          "removed": false
        },
        {
          "address": "0x2b7064E9674d767Cd7eFd4aEB150b493F03a4621",
          "topics": [
            "0x7af7f639f577383f0a8a8478127a8ae22234d6e7dd79d6bc411f54efb4f9e689",
            "0x000000000000000000000000496593189d0673bd5e85509df3f4c4c26e1a0c84"
          ],
          "data": "0x0000000000000000000000000000000000000000000000000000000000000004000000000000000000000000000000000000000000000000000000000000000000000000000000000000000000000000000000000000000000000000000000000000000000000000000000000000000000000000000000000000000000000001",
          "blockHash": "0xf0058def5f3dcf5b37234832a91af427c297f3a7f2348fead2413e2c883e6ca5",
          "blockNumber": "0xd39e6",
          "transactionHash": "0x8705b70835ac5ed1570e5848bf50121b697221a978c0a3260a5d5feecadf203c",
          "transactionIndex": "0x5",
          "logIndex": "0x25",
          "removed": false
        }
      ],
      "status": "0x1",
      "logsBloom": "0x04000000000000000400000000800000040000000000000000040002000000000000000000002400000000000000000000000400020000000000000000040002000000000000800000000000000000000000000800040000000000000000000008020000000000000000000000000000000020001000080000000800000000000000000000000000000000000000000000000000000002880000000000001000000000000000000000000100020008000000000000800001022000000000400000004060000000004000000002004000080000128000000000000000000040000000000000000000000000000000000000000000008021000000000000000000",
      "type": "0x2",
      "effectiveGasPrice": "0xb2d05e08"
    },
    {
      "transactionHash": "0x807d6ef77d66a156780604321c757357af4cd4548d6b47760421a887b2b93b45",
      "transactionIndex": "0x6",
      "blockHash": "0xf0058def5f3dcf5b37234832a91af427c297f3a7f2348fead2413e2c883e6ca5",
      "blockNumber": "0xd39e6",
      "from": "0x496593189D0673bd5E85509dF3F4c4c26e1A0C84",
      "to": "0x5de01F75deCF8364dBca7B7d75bE116389638716",
      "cumulativeGasUsed": "0x35e8e5",
      "gasUsed": "0x1df26",
      "contractAddress": null,
      "logs": [
        {
          "address": "0xE84DBB2B25F761751231a9D0DAfbdD4dC3aa8252",
          "topics": [
            "0x3d0ce9bfc3ed7d6862dbb28b2dea94561fe714a1b4d019aa8af39730d1ad7c3d",
            "0x0000000000000000000000005de01f75decf8364dbca7b7d75be116389638716"
          ],
          "data": "0x0000000000000000000000000000000000000000000000000005855ad1fb2000",
          "blockHash": "0xf0058def5f3dcf5b37234832a91af427c297f3a7f2348fead2413e2c883e6ca5",
          "blockNumber": "0xd39e6",
          "transactionHash": "0x807d6ef77d66a156780604321c757357af4cd4548d6b47760421a887b2b93b45",
          "transactionIndex": "0x6",
          "logIndex": "0x26",
          "removed": false
        },
        {
          "address": "0xd81351363b7d80b06E4Ec4De7989f0f91e41A846",
          "topics": [
            "0xb9490aee663998179ad13f9e1c1eb6189c71ad1a9ec87f33ad2766f98d9a268a",
            "0x000000000000000000000000496593189d0673bd5e85509df3f4c4c26e1a0c84",
            "0x0000000000000000000000005de01f75decf8364dbca7b7d75be116389638716",
            "0x0000000000000000000000000000000000000000000000000000000000000002"
          ],
          "data": "0x00000000000000000000000000000000000000000000000000000000000000020000000000000000000000000000000000000000000000000000000000000040000000000000000000000000000000000000000000000000000000000000000c7465737420636f6d6d656e740000000000000000000000000000000000000000",
          "blockHash": "0xf0058def5f3dcf5b37234832a91af427c297f3a7f2348fead2413e2c883e6ca5",
          "blockNumber": "0xd39e6",
          "transactionHash": "0x807d6ef77d66a156780604321c757357af4cd4548d6b47760421a887b2b93b45",
          "transactionIndex": "0x6",
          "logIndex": "0x27",
          "removed": false
        },
        {
          "address": "0x5de01F75deCF8364dBca7B7d75bE116389638716",
          "topics": [
            "0xc3d58168c5ae7397731d063d5bbf3d657854427343f4c083240f7aacaa2d0f62",
            "0x000000000000000000000000496593189d0673bd5e85509df3f4c4c26e1a0c84",
            "0x0000000000000000000000000000000000000000000000000000000000000000",
            "0x000000000000000000000000496593189d0673bd5e85509df3f4c4c26e1a0c84"
          ],
          "data": "0x00000000000000000000000000000000000000000000000000000000000000020000000000000000000000000000000000000000000000000000000000000002",
          "blockHash": "0xf0058def5f3dcf5b37234832a91af427c297f3a7f2348fead2413e2c883e6ca5",
          "blockNumber": "0xd39e6",
          "transactionHash": "0x807d6ef77d66a156780604321c757357af4cd4548d6b47760421a887b2b93b45",
          "transactionIndex": "0x6",
          "logIndex": "0x28",
          "removed": false
        },
        {
          "address": "0x5de01F75deCF8364dBca7B7d75bE116389638716",
          "topics": [
            "0xb362243af1e2070d7d5bf8d713f2e0fab64203f1b71462afbe20572909788c5e",
            "0x000000000000000000000000496593189d0673bd5e85509df3f4c4c26e1a0c84",
            "0x000000000000000000000000d81351363b7d80b06e4ec4de7989f0f91e41a846",
            "0x0000000000000000000000000000000000000000000000000000000000000002"
          ],
          "data": "0x00000000000000000000000000000000000000000000000000000000000000020000000000000000000000000000000000000000000000000005855ad1fb2000",
          "blockHash": "0xf0058def5f3dcf5b37234832a91af427c297f3a7f2348fead2413e2c883e6ca5",
          "blockNumber": "0xd39e6",
          "transactionHash": "0x807d6ef77d66a156780604321c757357af4cd4548d6b47760421a887b2b93b45",
          "transactionIndex": "0x6",
          "logIndex": "0x29",
          "removed": false
        }
      ],
      "status": "0x1",
      "logsBloom": "0x04000000000000000000000000800000000000000000400000000000000000000000000000022000000000000000000000000000000000000100000000002000000000000000000000000080000000000000000000010000000000000000000000000000020000000000000000000801000000000000080000000800000000000000000000000000000000000000000000000020000000880000000000001000000000000000000000000140000000800000000000000000000000000000000000000060000000004000000002004000080000121008000000000000000020000000000000000000000000800000000000000200008000000000080000000000",
      "type": "0x2",
      "effectiveGasPrice": "0xb2d05e08"
    },
    {
      "transactionHash": "0x4a9f86bd4cf98da43029b4f2836b72f52f4afcc3ca13197b2ebafbbaaa99ff98",
      "transactionIndex": "0x7",
      "blockHash": "0xf0058def5f3dcf5b37234832a91af427c297f3a7f2348fead2413e2c883e6ca5",
      "blockNumber": "0xd39e6",
      "from": "0x496593189D0673bd5E85509dF3F4c4c26e1A0C84",
      "to": "0x5de01F75deCF8364dBca7B7d75bE116389638716",
      "cumulativeGasUsed": "0x36b307",
      "gasUsed": "0xca22",
      "contractAddress": null,
      "logs": [
        {
          "address": "0x5de01F75deCF8364dBca7B7d75bE116389638716",
          "topics": [
            "0x17307eab39ab6107e8899845ad3d59bd9653f200f220920489ca2b5937696c31",
            "0x000000000000000000000000496593189d0673bd5e85509df3f4c4c26e1a0c84",
            "0x0000000000000000000000002b7064e9674d767cd7efd4aeb150b493f03a4621"
          ],
          "data": "0x0000000000000000000000000000000000000000000000000000000000000001",
          "blockHash": "0xf0058def5f3dcf5b37234832a91af427c297f3a7f2348fead2413e2c883e6ca5",
          "blockNumber": "0xd39e6",
          "transactionHash": "0x4a9f86bd4cf98da43029b4f2836b72f52f4afcc3ca13197b2ebafbbaaa99ff98",
          "transactionIndex": "0x7",
          "logIndex": "0x2a",
          "removed": false
        }
      ],
      "status": "0x1",
      "logsBloom": "0x00000000000000000000000000800000040000000000000000000000000000000000000000000000000000000000000000000000000000000000000000000002000000000000800000000000000000000000000000000000000000000000000002000000000000000000000000000000000000000000000000000000000000000000000000000000000000000000000000000000000000800000000000000000000000000000000000000000000000000000000000000000000000000000000000000020000000004000000000004000080000000000000000000000000000000000200800000000000000000000000000000000000000000000000000000000",
      "type": "0x2",
      "effectiveGasPrice": "0xb2d05e08"
    },
    {
      "transactionHash": "0x51e5944494dbdc6ef55beafa04f1baa259fc6aba429971414ee768d0c3ad3380",
      "transactionIndex": "0x8",
      "blockHash": "0xf0058def5f3dcf5b37234832a91af427c297f3a7f2348fead2413e2c883e6ca5",
      "blockNumber": "0xd39e6",
      "from": "0x496593189D0673bd5E85509dF3F4c4c26e1A0C84",
      "to": "0x2b7064E9674d767Cd7eFd4aEB150b493F03a4621",
      "cumulativeGasUsed": "0x3a9720",
      "gasUsed": "0x3e419",
      "contractAddress": null,
      "logs": [
        {
          "address": "0x5de01F75deCF8364dBca7B7d75bE116389638716",
          "topics": [
            "0x4a39dc06d4c0dbc64b70af90fd698a233a518aa5d07e595d983b8c0526c8f7fb",
            "0x0000000000000000000000002b7064e9674d767cd7efd4aeb150b493f03a4621",
            "0x000000000000000000000000496593189d0673bd5e85509df3f4c4c26e1a0c84",
            "0x0000000000000000000000000000000000000000000000000000000000000000"
          ],
          "data": "0x000000000000000000000000000000000000000000000000000000000000004000000000000000000000000000000000000000000000000000000000000000800000000000000000000000000000000000000000000000000000000000000001000000000000000000000000000000000000000000000000000000000000000200000000000000000000000000000000000000000000000000000000000000010000000000000000000000000000000000000000000000000000000000000002",
          "blockHash": "0xf0058def5f3dcf5b37234832a91af427c297f3a7f2348fead2413e2c883e6ca5",
          "blockNumber": "0xd39e6",
          "transactionHash": "0x51e5944494dbdc6ef55beafa04f1baa259fc6aba429971414ee768d0c3ad3380",
          "transactionIndex": "0x8",
          "logIndex": "0x2b",
          "removed": false
        },
        {
          "address": "0x5de01F75deCF8364dBca7B7d75bE116389638716",
          "topics": [
            "0x5086d1bcea28999da9875111e3592688fbfa821db63214c695ca35768080c2fe",
            "0x0000000000000000000000002b7064e9674d767cd7efd4aeb150b493f03a4621",
            "0x0000000000000000000000000000000000000000000000000000000000000005"
          ],
          "data": "0x00000000000000000000000000000000000000000000000000000000000000200000000000000000000000000000000000000000000000000000000000000060ffffffffffffffffffffffffffffffffffffffffffffffffffffffffffffffff00000000000000000000000000000000000000000000000000000000000000000000000000000000000000000000000000000000000000000000000000000000",
          "blockHash": "0xf0058def5f3dcf5b37234832a91af427c297f3a7f2348fead2413e2c883e6ca5",
          "blockNumber": "0xd39e6",
          "transactionHash": "0x51e5944494dbdc6ef55beafa04f1baa259fc6aba429971414ee768d0c3ad3380",
          "transactionIndex": "0x8",
          "logIndex": "0x2c",
          "removed": false
        },
        {
          "address": "0x5de01F75deCF8364dBca7B7d75bE116389638716",
          "topics": [
            "0x35fb03d0d293ef5b362761900725ce891f8f766b5a662cdd445372355448e7ca",
            "0x0000000000000000000000000000000000000000000000000000000000000005",
            "0x0000000000000000000000002b7064e9674d767cd7efd4aeb150b493f03a4621",
            "0x0000000000000000000000000000000000000000000000000000000000000002"
          ],
          "data": "0x",
          "blockHash": "0xf0058def5f3dcf5b37234832a91af427c297f3a7f2348fead2413e2c883e6ca5",
          "blockNumber": "0xd39e6",
          "transactionHash": "0x51e5944494dbdc6ef55beafa04f1baa259fc6aba429971414ee768d0c3ad3380",
          "transactionIndex": "0x8",
          "logIndex": "0x2d",
          "removed": false
        },
        {
          "address": "0x5de01F75deCF8364dBca7B7d75bE116389638716",
          "topics": [
            "0x1b944478023872bf91b25a13fdba3a686fdb1bf4dbb872f850240fad4b8cc068",
            "0x0000000000000000000000000000000000000000000000000000000000000005",
            "0x0000000000000000000000002b7064e9674d767cd7efd4aeb150b493f03a4621"
          ],
          "data": "0x0000000000000000000000000000000000000000000000000000000000000040ffffffffffffffffffffffffffffffffffffffffffffffffffffffffffffffff0000000000000000000000000000000000000000000000000000000000000000",
          "blockHash": "0xf0058def5f3dcf5b37234832a91af427c297f3a7f2348fead2413e2c883e6ca5",
          "blockNumber": "0xd39e6",
          "transactionHash": "0x51e5944494dbdc6ef55beafa04f1baa259fc6aba429971414ee768d0c3ad3380",
          "transactionIndex": "0x8",
          "logIndex": "0x2e",
          "removed": false
        },
        {
          "address": "0x5de01F75deCF8364dBca7B7d75bE116389638716",
          "topics": [
            "0x35fb03d0d293ef5b362761900725ce891f8f766b5a662cdd445372355448e7ca",
            "0x0000000000000000000000000000000000000000000000000000000000000005",
            "0x000000000000000000000000d81351363b7d80b06e4ec4de7989f0f91e41a846",
            "0x0000000000000000000000000000000000000000000000000000000000000004"
          ],
          "data": "0x",
          "blockHash": "0xf0058def5f3dcf5b37234832a91af427c297f3a7f2348fead2413e2c883e6ca5",
          "blockNumber": "0xd39e6",
          "transactionHash": "0x51e5944494dbdc6ef55beafa04f1baa259fc6aba429971414ee768d0c3ad3380",
          "transactionIndex": "0x8",
          "logIndex": "0x2f",
          "removed": false
        },
        {
          "address": "0xd81351363b7d80b06E4Ec4De7989f0f91e41A846",
          "topics": [
            "0x5e4ad74f00b9a9d4a8452359a7fbd80cc5a6930a9df5e5b797ddc024b24b252c",
            "0x0000000000000000000000005de01f75decf8364dbca7b7d75be116389638716",
            "0x0000000000000000000000000000000000000000000000000000000000000005"
          ],
          "data": "0x0000000000000000000000000000000000000000000000000000000000000000000000000000000000000000000000000000000000000000ffffffffffffffff000000000000000000000000000000000000000000000000000000000000000000000000000000000000000000000000000000000000000000000000000000000000000000000000000000000000000000000000000000000000000000000000",
          "blockHash": "0xf0058def5f3dcf5b37234832a91af427c297f3a7f2348fead2413e2c883e6ca5",
          "blockNumber": "0xd39e6",
          "transactionHash": "0x51e5944494dbdc6ef55beafa04f1baa259fc6aba429971414ee768d0c3ad3380",
          "transactionIndex": "0x8",
          "logIndex": "0x30",
          "removed": false
        },
        {
          "address": "0x2b7064E9674d767Cd7eFd4aEB150b493F03a4621",
          "topics": [
            "0x7af7f639f577383f0a8a8478127a8ae22234d6e7dd79d6bc411f54efb4f9e689",
            "0x000000000000000000000000496593189d0673bd5e85509df3f4c4c26e1a0c84"
          ],
          "data": "0x0000000000000000000000000000000000000000000000000000000000000005000000000000000000000000000000000000000000000000000000000000000200000000000000000000000000000000000000000000000000000000000000000000000000000000000000000000000000000000000000000000000000000000",
          "blockHash": "0xf0058def5f3dcf5b37234832a91af427c297f3a7f2348fead2413e2c883e6ca5",
          "blockNumber": "0xd39e6",
          "transactionHash": "0x51e5944494dbdc6ef55beafa04f1baa259fc6aba429971414ee768d0c3ad3380",
          "transactionIndex": "0x8",
          "logIndex": "0x31",
          "removed": false
        }
      ],
      "status": "0x1",
      "logsBloom": "0x04000000000000000400000000800000040000000000000000040002000000000000000000002400000000000000000000000400000000000000000000000002000010000000800000000000000000000000000800000000000000000000000008020000020000000000000000000800000020001800080000000800000000000000000000000000000000000000001000000800000002880000000000001000000000000000000000000100020008000000000000000001022000000000000000004060000000004000000002004000080400128000000000000000000020000000000000000000000000000000000000000000008021000000000002000000",
      "type": "0x2",
      "effectiveGasPrice": "0xb2d05e08"
    },
    {
      "transactionHash": "0x5c05ab438fb3872a085b99dcf876009da32ca5fcc391c0f270ce33965df0602d",
      "transactionIndex": "0x9",
      "blockHash": "0xf0058def5f3dcf5b37234832a91af427c297f3a7f2348fead2413e2c883e6ca5",
      "blockNumber": "0xd39e6",
      "from": "0x496593189D0673bd5E85509dF3F4c4c26e1A0C84",
      "to": "0x5de01F75deCF8364dBca7B7d75bE116389638716",
      "cumulativeGasUsed": "0x3c7646",
      "gasUsed": "0x1df26",
      "contractAddress": null,
      "logs": [
        {
          "address": "0xE84DBB2B25F761751231a9D0DAfbdD4dC3aa8252",
          "topics": [
            "0x3d0ce9bfc3ed7d6862dbb28b2dea94561fe714a1b4d019aa8af39730d1ad7c3d",
            "0x0000000000000000000000005de01f75decf8364dbca7b7d75be116389638716"
          ],
          "data": "0x0000000000000000000000000000000000000000000000000005855ad1fb2000",
          "blockHash": "0xf0058def5f3dcf5b37234832a91af427c297f3a7f2348fead2413e2c883e6ca5",
          "blockNumber": "0xd39e6",
          "transactionHash": "0x5c05ab438fb3872a085b99dcf876009da32ca5fcc391c0f270ce33965df0602d",
          "transactionIndex": "0x9",
          "logIndex": "0x32",
          "removed": false
        },
        {
          "address": "0xd81351363b7d80b06E4Ec4De7989f0f91e41A846",
          "topics": [
            "0xb9490aee663998179ad13f9e1c1eb6189c71ad1a9ec87f33ad2766f98d9a268a",
            "0x000000000000000000000000496593189d0673bd5e85509df3f4c4c26e1a0c84",
            "0x0000000000000000000000005de01f75decf8364dbca7b7d75be116389638716",
            "0x0000000000000000000000000000000000000000000000000000000000000005"
          ],
          "data": "0x00000000000000000000000000000000000000000000000000000000000000020000000000000000000000000000000000000000000000000000000000000040000000000000000000000000000000000000000000000000000000000000000c7465737420636f6d6d656e740000000000000000000000000000000000000000",
          "blockHash": "0xf0058def5f3dcf5b37234832a91af427c297f3a7f2348fead2413e2c883e6ca5",
          "blockNumber": "0xd39e6",
          "transactionHash": "0x5c05ab438fb3872a085b99dcf876009da32ca5fcc391c0f270ce33965df0602d",
          "transactionIndex": "0x9",
          "logIndex": "0x33",
          "removed": false
        },
        {
          "address": "0x5de01F75deCF8364dBca7B7d75bE116389638716",
          "topics": [
            "0xc3d58168c5ae7397731d063d5bbf3d657854427343f4c083240f7aacaa2d0f62",
            "0x000000000000000000000000496593189d0673bd5e85509df3f4c4c26e1a0c84",
            "0x0000000000000000000000000000000000000000000000000000000000000000",
            "0x000000000000000000000000496593189d0673bd5e85509df3f4c4c26e1a0c84"
          ],
          "data": "0x00000000000000000000000000000000000000000000000000000000000000050000000000000000000000000000000000000000000000000000000000000002",
          "blockHash": "0xf0058def5f3dcf5b37234832a91af427c297f3a7f2348fead2413e2c883e6ca5",
          "blockNumber": "0xd39e6",
          "transactionHash": "0x5c05ab438fb3872a085b99dcf876009da32ca5fcc391c0f270ce33965df0602d",
          "transactionIndex": "0x9",
          "logIndex": "0x34",
          "removed": false
        },
        {
          "address": "0x5de01F75deCF8364dBca7B7d75bE116389638716",
          "topics": [
            "0xb362243af1e2070d7d5bf8d713f2e0fab64203f1b71462afbe20572909788c5e",
            "0x000000000000000000000000496593189d0673bd5e85509df3f4c4c26e1a0c84",
            "0x000000000000000000000000d81351363b7d80b06e4ec4de7989f0f91e41a846",
            "0x0000000000000000000000000000000000000000000000000000000000000005"
          ],
          "data": "0x00000000000000000000000000000000000000000000000000000000000000020000000000000000000000000000000000000000000000000005855ad1fb2000",
          "blockHash": "0xf0058def5f3dcf5b37234832a91af427c297f3a7f2348fead2413e2c883e6ca5",
          "blockNumber": "0xd39e6",
          "transactionHash": "0x5c05ab438fb3872a085b99dcf876009da32ca5fcc391c0f270ce33965df0602d",
          "transactionIndex": "0x9",
          "logIndex": "0x35",
          "removed": false
        }
      ],
      "status": "0x1",
      "logsBloom": "0x00000000000000000000000000800000000000000000400000000000000000000000000000022000000000000000000000000000000000000100000000002000000010000000000000000080000000000000000000010000000000000000000000000000020000000000000000000801000000000000080000000800000000000000000000000000000000000000001000000820000000880000000000001000000000000000000000000040000000800000000000000000000000000000000000000060000000004000000002004000080000121008000000000000000020000000000000000000000000800000000000000200000000000000080000000000",
      "type": "0x2",
      "effectiveGasPrice": "0xb2d05e08"
    }
  ],
  "libraries": [],
  "pending": [],
  "returns": {},
  "timestamp": 1691898827,
  "chain": 999,
  "multi": false,
  "commit": "86bee83"
}