{
  "transactions": [
    {
      "hash": "0x1b401dd074be22acf5606f326ef71e003150221c7bbd3f1c430fcfddf64027a0",
      "transactionType": "CREATE",
      "contractName": "OurColor",
      "contractAddress": "0x639eac45b8CCb2FC70Aae3F431B339b6A5AB907B",
      "function": null,
      "arguments": null,
      "transaction": {
        "type": "0x02",
        "from": "0x496593189d0673bd5e85509df3f4c4c26e1a0c84",
        "gas": "0x12966a",
        "value": "0x0",
        "data": "0x60806040523480156200001157600080fd5b506040805160808101909152600060a0820181905260a1820181905260a28201528060a3810160405160208183030381529060405262000051906200020d565b6001600160e81b0319168152604051600160f81b6020808301919091526000602183018190526022830152909101906023016040516020818303038152906040526200009d906200020d565b6001600160e81b031916815260405160006020808301829052600160f81b6021840152602283019190915290910190602301604051602081830303815290604052620000e9906200020d565b6001600160e81b0319168152604051600060208083018290526021830191909152600160f81b60228301529091019060230160405160208183030381529060405262000135906200020d565b6001600160e81b03191690526200015190600090600462000158565b5062000245565b600183019183908215620001e45791602002820160005b83821115620001b157835183826101000a81548162ffffff021916908360e81c021790555092602001926003016020816002010492830192600103026200016f565b8015620001e25782816101000a81549062ffffff0219169055600301602081600201049283019260010302620001b1565b505b50620001f2929150620001f6565b5090565b5b80821115620001f25760008155600101620001f7565b805160208201516001600160e81b031980821692919060038310156200023d5780818460030360031b1b83161693505b505050919050565b610f5980620002556000396000f3fe608060405234801561001057600080fd5b506004361061007d5760003560e01c806369f8db3e1161005b57806369f8db3e146100f35780639ded06df1461011f578063a88d27f114610134578063bd11f69d1461014757600080fd5b8063166f46a714610082578063565938da146100b25780636181033d146100d3575b600080fd5b600154610095906001600160a01b031681565b6040516001600160a01b0390911681526020015b60405180910390f35b6100c56100c0366004610b54565b61016a565b6040519081526020016100a9565b6100c56100e1366004610c21565b60046020526000908152604090205481565b610106610101366004610c52565b61025b565b6040516001600160e81b031990911681526020016100a9565b61013261012d366004610c6b565b610288565b005b600254610095906001600160a01b031681565b610106610155366004610c52565b60036020526000908152604090205460e81b81565b6001546000906001600160a01b03166101c05760405162461bcd60e51b815260206004820152601360248201527204f7572436f6c6f723a206e6f7420736574757606c1b60448201526064015b60405180910390fd5b60006101cb83610492565b90506101ef816001600160e81b031916600090815260046020526040902054151590565b1561023c5760405162461bcd60e51b815260206004820152601c60248201527f4f7572436f6c6f723a20616c726561647920726567697374657265640000000060448201526064016101b7565b610246338461059d565b60006102518261071c565b925050505b919050565b6000816004811061026b57600080fd5b600a9182820401919006600302915054906101000a900460e81b81565b6001546001600160a01b0316156102e15760405162461bcd60e51b815260206004820152601760248201527f4f7572436f6c6f723a20616c726561647920736574757000000000000000000060448201526064016101b7565b80516000036102ef57600080fd5b600080828060200190518101906103069190610d17565b600180546001600160a01b038085166001600160a01b0319928316811790935560028054918516919092161790556040805163f1b0d6bb60e01b81529051939550919350916323bd0386913091600091859163f1b0d6bb91600480820192602092909190829003018187875af1158015610384573d6000803e3d6000fd5b505050506040513d601f19601f820116820180604052508101906103a89190610d4a565b6040516001600160e01b031960e086901b1681526001600160a01b03909316600484015260248301919091526044820152606401602060405180830381865afa1580156103f9573d6000803e3d6000fd5b505050506040513d601f19601f8201168201806040525081019061041d9190610d63565b6104855760405162461bcd60e51b815260206004820152603360248201527f4f7572436f6c6f723a2063616e6e6f742063616c6c205a6f726143726561746f6044820152723918989a9a91b9b2ba3ab82732bbaa37b5b2b760691b60648201526084016101b7565b61048d610a88565b505050565b6000808080805b855181101561054d5760008682815181106104b6576104b6610d85565b602090810291909101810151805160009081526003835260409020549181015190925060e882901b916104ec9190601d1a610db1565b6104f69087610dd4565b602083015190965061050c90600183901a610db1565b6105169086610dd4565b602083015190955061052c90600283901a610db1565b6105369085610dd4565b93505050808061054590610df3565b915050610499565b506040516001600160f81b031960f885811b8216602084015284811b8216602184015283901b16602282015260230160405160208183030381529060405261059490610e0c565b95945050505050565b6000815167ffffffffffffffff8111156105b9576105b9610ae4565b6040519080825280602002602001820160405280156105e2578160200160208202803683370190505b5090506000825167ffffffffffffffff81111561060157610601610ae4565b60405190808252806020026020018201604052801561062a578160200160208202803683370190505b50905060005b83518110156106af57600084828151811061064d5761064d610d85565b60200260200101519050806000015184838151811061066e5761066e610d85565b602002602001018181525050806020015183838151811061069157610691610d85565b602090810291909101015250806106a781610df3565b915050610630565b50600154604051631ac8311560e21b81526001600160a01b0390911690636b20c454906106e490879086908690600401610e7e565b600060405180830381600087803b1580156106fe57600080fd5b505af1158015610712573d6000803e3d6000fd5b5050505050505050565b6001600160e81b031981166000908152600460205260408120541561078e5760405162461bcd60e51b815260206004820152602260248201527f4f7572436f6c6f723a20636f6c6f7220616c7265616479207265676973746572604482015261195960f21b60648201526084016101b7565b6001546040805163692c304d60e11b815260048101919091526000604482018190526000196024830152916001600160a01b03169063d258609a906064016020604051808303816000875af11580156107eb573d6000803e3d6000fd5b505050506040513d601f19601f8201168201806040525081019061080f9190610d4a565b90508060000361086d5760405162461bcd60e51b815260206004820152602360248201527f4f7572436f6c6f723a206661696c656420746f207365747570206e657720746f60448201526235b2b760e91b60648201526084016101b7565b6001546002546040805163f1b0d6bb60e01b815290516001600160a01b0393841693638ec998a0938693911691859163f1b0d6bb91600480830192602092919082900301816000875af11580156108c8573d6000803e3d6000fd5b505050506040513d601f19601f820116820180604052508101906108ec9190610d4a565b6040516001600160e01b031960e086901b16815260048101939093526001600160a01b0390911660248301526044820152606401600060405180830381600087803b15801561093a57600080fd5b505af115801561094e573d6000803e3d6000fd5b50506001546002546040805160a081018252600080825267ffffffffffffffff602080840182815284860184815260608601858152608087019586528751602481018e905296518516604488015291518416606487015251909216608485015290516bffffffffffffffffffffffff1660a484015290516001600160a01b0390811660c4808501919091528451808503909101815260e4909301845290820180516001600160e01b0316631a6dbf7760e11b1790529151636c825ca560e11b8152938216955063d904b94a9450610a2e9387939290921691600401610ebe565b600060405180830381600087803b158015610a4857600080fd5b505af1158015610a5c573d6000803e3d6000fd5b5050506000828152600360205260409020805462ffffff191660e89590951c9490941790935592915050565b60005b6004811015610ae1576000808260048110610aa857610aa8610d85565b600a91828204019190066003029054906101000a900460e81b9050610acc8161071c565b50508080610ad990610df3565b915050610a8b565b50565b634e487b7160e01b600052604160045260246000fd5b6040805190810167ffffffffffffffff81118282101715610b1d57610b1d610ae4565b60405290565b604051601f8201601f1916810167ffffffffffffffff81118282101715610b4c57610b4c610ae4565b604052919050565b60006020808385031215610b6757600080fd5b823567ffffffffffffffff80821115610b7f57600080fd5b818501915085601f830112610b9357600080fd5b813581811115610ba557610ba5610ae4565b610bb3848260051b01610b23565b818152848101925060069190911b830184019087821115610bd357600080fd5b928401925b81841015610c165760408489031215610bf15760008081fd5b610bf9610afa565b843581528585013586820152835260409093019291840191610bd8565b979650505050505050565b600060208284031215610c3357600080fd5b81356001600160e81b031981168114610c4b57600080fd5b9392505050565b600060208284031215610c6457600080fd5b5035919050565b60006020808385031215610c7e57600080fd5b823567ffffffffffffffff80821115610c9657600080fd5b818501915085601f830112610caa57600080fd5b813581811115610cbc57610cbc610ae4565b610cce601f8201601f19168501610b23565b91508082528684828501011115610ce457600080fd5b8084840185840137600090820190930192909252509392505050565b80516001600160a01b038116811461025657600080fd5b60008060408385031215610d2a57600080fd5b610d3383610d00565b9150610d4160208401610d00565b90509250929050565b600060208284031215610d5c57600080fd5b5051919050565b600060208284031215610d7557600080fd5b81518015158114610c4b57600080fd5b634e487b7160e01b600052603260045260246000fd5b634e487b7160e01b600052601160045260246000fd5b60ff8181168382160290811690818114610dcd57610dcd610d9b565b5092915050565b60ff8181168382160190811115610ded57610ded610d9b565b92915050565b600060018201610e0557610e05610d9b565b5060010190565b805160208201516001600160e81b03198082169291906003831015610e3b5780818460030360031b1b83161693505b505050919050565b600081518084526020808501945080840160005b83811015610e7357815187529582019590820190600101610e57565b509495945050505050565b6001600160a01b0384168152606060208201819052600090610ea290830185610e43565b8281036040840152610eb48185610e43565b9695505050505050565b8381526000602060018060a01b0385168184015260606040840152835180606085015260005b81811015610f0057858101830151858201608001528201610ee4565b506000608082860101526080601f19601f8301168501019250505094935050505056fea2646970667358221220504326ffdc3dc91d6604979745d2c9b0ac7f76cc2f1f9fcba001ab0275889b5064736f6c63430008110033",
        "nonce": "0x6e",
        "accessList": []
      },
      "additionalContracts": [],
      "isFixedGasLimit": false
    },
    {
      "hash": "0xddc6f9fb452a7dd1a13862d4b89839d2debfeb648aadb1a039a73d15e0ede259",
      "transactionType": "CREATE",
      "contractName": "OurColorRenderer",
      "contractAddress": "0xCB4da5Be67DC59C91934a53FB1428Be2f9616698",
      "function": null,
      "arguments": null,
      "transaction": {
        "type": "0x02",
        "from": "0x496593189d0673bd5e85509df3f4c4c26e1a0c84",
        "gas": "0xc7515",
        "value": "0x0",
        "data": "0x608060405234801561001057600080fd5b50610a67806100206000396000f3fe608060405234801561001057600080fd5b50600436106100575760003560e01c806301ffc9a71461005c5780630e89341c146100955780633fe800ef146100b55780639ded06df146100c8578063e8a3d485146100dd575b600080fd5b61008061006a366004610402565b6001600160e01b031916633de3f32360e11b1490565b60405190151581526020015b60405180910390f35b6100a86100a3366004610433565b6100e5565b60405161008c9190610470565b6100a86100c3366004610433565b610143565b6100db6100d6366004610512565b610217565b005b6100a8610260565b606060006100f283610143565b905061011c816040516020016101089190610592565b6040516020818303038152906040526102af565b60405160200161012c919061062f565b604051602081830303815290604052915050919050565b6060610211604051602001610108907f3c73766720786d6c6e733d22687474703a2f2f7777772e77332e6f72672f323081527f30302f737667222076696577426f783d223020302031303020313030223e000060208201527f3c636972636c652063783d223530222063793d2235302220723d223430222073603e8201527f74726f6b653d22626c61636b22207374726f6b652d77696474683d2233222066605e8201526b34b6361e913932b21110179f60a11b607e820152651e17b9bb339f60d11b608a82015260900190565b92915050565b805160000361022557600080fd5b6000808280602001905181019061023c91906106c1565b9092509050600061024d83826107ae565b50600161025a82826107ae565b50505050565b6060600061026e6000610143565b905061028a6000600183604051602001610108939291906108e1565b60405160200161029a919061062f565b60405160208183030381529060405291505090565b606081516000036102ce57505060408051602081019091526000815290565b60006040518060600160405280604081526020016109f260409139905060006003845160026102fd91906109a5565b61030791906109b8565b6103129060046109da565b67ffffffffffffffff81111561032a5761032a6104a3565b6040519080825280601f01601f191660200182016040528015610354576020820181803683370190505b509050600182016020820185865187015b808210156103c0576003820191508151603f8160121c168501518453600184019350603f81600c1c168501518453600184019350603f8160061c168501518453600184019350603f8116850151845350600183019250610365565b50506003865106600181146103dc57600281146103ef576103f7565b603d6001830353603d60028303536103f7565b603d60018303535b509195945050505050565b60006020828403121561041457600080fd5b81356001600160e01b03198116811461042c57600080fd5b9392505050565b60006020828403121561044557600080fd5b5035919050565b60005b8381101561046757818101518382015260200161044f565b50506000910152565b602081526000825180602084015261048f81604085016020870161044c565b601f01601f19169190910160400192915050565b634e487b7160e01b600052604160045260246000fd5b604051601f8201601f1916810167ffffffffffffffff811182821017156104e2576104e26104a3565b604052919050565b600067ffffffffffffffff821115610504576105046104a3565b50601f01601f191660200190565b60006020828403121561052457600080fd5b813567ffffffffffffffff81111561053b57600080fd5b8201601f8101841361054c57600080fd5b803561055f61055a826104ea565b6104b9565b81815285602083850101111561057457600080fd5b81602084016020830137600091810160200191909152949350505050565b7f7b226e616d65223a225a6f726220546f6b656e222c202264657363726970746981527f6f6e223a225a6f726220546f6b656e222c2022696d616765223a20220000000060208201527f646174613a696d6167652f7376672b786d6c3b6261736536342c000000000000603c8201526000825161061681605685016020870161044c565b61227d60f01b6056939091019283015250605801919050565b7f646174613a6170706c69636174696f6e2f6a736f6e3b6261736536342c00000081526000825161066781601d85016020870161044c565b91909101601d0192915050565b600082601f83011261068557600080fd5b815161069361055a826104ea565b8181528460208386010111156106a857600080fd5b6106b982602083016020870161044c565b949350505050565b600080604083850312156106d457600080fd5b825167ffffffffffffffff808211156106ec57600080fd5b6106f886838701610674565b9350602085015191508082111561070e57600080fd5b5061071b85828601610674565b9150509250929050565b600181811c9082168061073957607f821691505b60208210810361075957634e487b7160e01b600052602260045260246000fd5b50919050565b601f8211156107a957600081815260208120601f850160051c810160208610156107865750805b601f850160051c820191505b818110156107a557828155600101610792565b5050505b505050565b815167ffffffffffffffff8111156107c8576107c86104a3565b6107dc816107d68454610725565b8461075f565b602080601f83116001811461081157600084156107f95750858301515b600019600386901b1c1916600185901b1785556107a5565b600085815260208120601f198616915b8281101561084057888601518255948401946001909101908401610821565b508582101561085e5787850151600019600388901b60f8161c191681555b5050505050600190811b01905550565b6000815461087b81610725565b6001828116801561089357600181146108a8576108d7565b60ff19841687528215158302870194506108d7565b8560005260208060002060005b858110156108ce5781548a8201529084019082016108b5565b50505082870194505b5050505092915050565b683d913730b6b2911d1160b91b815260006108ff600983018661086e565b71111610113232b9b1b934b83a34b7b7111d1160711b8152610924601282018661086e565b6c1116101134b6b0b3b2911d101160991b81527f646174613a696d6167652f7376672b786d6c3b6261736536342c000000000000600d820152845190915061097381602784016020880161044c565b61227d60f01b6027929091019182015260290195945050505050565b634e487b7160e01b600052601160045260246000fd5b808201808211156102115761021161098f565b6000826109d557634e487b7160e01b600052601260045260246000fd5b500490565b80820281158282048414176102115761021161098f56fe4142434445464748494a4b4c4d4e4f505152535455565758595a6162636465666768696a6b6c6d6e6f707172737475767778797a303132333435363738392b2fa26469706673582212205de2abff6b6869f7bd7692062705c16c029a0221b39216032492e03e9205b6ae64736f6c63430008110033",
        "nonce": "0x6f",
        "accessList": []
      },
      "additionalContracts": [],
      "isFixedGasLimit": false
    },
    {
      "hash": "0x8168cbc6938561c3a4f099ca0b9ac9d0c80e0220784361a7fdec0acbad887ee0",
      "transactionType": "CALL",
      "contractName": "OurColorRenderer",
      "contractAddress": "0xCB4da5Be67DC59C91934a53FB1428Be2f9616698",
      "function": "setup(bytes)",
      "arguments": [
        "0x00000000000000000000000000000000000000000000000000000000000000400000000000000000000000000000000000000000000000000000000000000080000000000000000000000000000000000000000000000000000000000000000974657374206e616d650000000000000000000000000000000000000000000000000000000000000000000000000000000000000000000000000000000000001074657374206465736372697074696f6e00000000000000000000000000000000"
      ],
      "transaction": {
        "type": "0x02",
        "from": "0x496593189d0673bd5e85509df3f4c4c26e1a0c84",
        "to": "0xcb4da5be67dc59c91934a53fb1428be2f9616698",
        "gas": "0x1761e",
        "value": "0x0",
        "data": "0x9ded06df000000000000000000000000000000000000000000000000000000000000002000000000000000000000000000000000000000000000000000000000000000c000000000000000000000000000000000000000000000000000000000000000400000000000000000000000000000000000000000000000000000000000000080000000000000000000000000000000000000000000000000000000000000000974657374206e616d650000000000000000000000000000000000000000000000000000000000000000000000000000000000000000000000000000000000001074657374206465736372697074696f6e00000000000000000000000000000000",
        "nonce": "0x70",
        "accessList": []
      },
      "additionalContracts": [],
      "isFixedGasLimit": false
    },
    {
      "hash": "0xd6d52bbd9c97ac49aa1b2b30286d278b021f70674dbcf805e74660a49db64548",
      "transactionType": "CALL",
      "contractName": null,
      "contractAddress": "0x6a357139C1bcDcf0B3AB9bC447932dDdcb956703",
      "function": null,
      "arguments": null,
      "transaction": {
        "type": "0x02",
        "from": "0x496593189d0673bd5e85509df3f4c4c26e1a0c84",
        "to": "0x6a357139c1bcdcf0b3ab9bc447932dddcb956703",
        "gas": "0xa291b",
        "value": "0x0",
        "data": "0x0582823a00000000000000000000000000000000000000000000000000000000000000e0000000000000000000000000000000000000000000000000000000000000010000000000000000000000000000000000000000000000000000000000000000000000000000000000000000000000000000000000000000000000000000000000000000000000000000000000496593189d0673bd5e85509df3f4c4c26e1a0c84000000000000000000000000496593189d0673bd5e85509df3f4c4c26e1a0c840000000000000000000000000000000000000000000000000000000000000140000000000000000000000000000000000000000000000000000000000000000000000000000000000000000000000000000000000000000000000000000000094f757220436f6c6f7200000000000000000000000000000000000000000000000000000000000000000000000000000000000000000000000000000000000004000000000000000000000000000000000000000000000000000000000000008000000000000000000000000000000000000000000000000000000000000001000000000000000000000000000000000000000000000000000000000000000180000000000000000000000000000000000000000000000000000000000000020000000000000000000000000000000000000000000000000000000000000000446661a9ba0000000000000000000000000000000000000000000000000000000000000000000000000000000000000000cb4da5be67dc59c91934a53fb1428be2f96166980000000000000000000000000000000000000000000000000000000000000000000000000000000000000000000000000000000000000000000000446661a9ba0000000000000000000000000000000000000000000000000000000000000001000000000000000000000000cb4da5be67dc59c91934a53fb1428be2f96166980000000000000000000000000000000000000000000000000000000000000000000000000000000000000000000000000000000000000000000000446661a9ba0000000000000000000000000000000000000000000000000000000000000002000000000000000000000000cb4da5be67dc59c91934a53fb1428be2f96166980000000000000000000000000000000000000000000000000000000000000000000000000000000000000000000000000000000000000000000000648ec998a00000000000000000000000000000000000000000000000000000000000000000000000000000000000000000639eac45b8ccb2fc70aae3f431b339b6a5ab907b000000000000000000000000000000000000000000000000000000000000000200000000000000000000000000000000000000000000000000000000",
        "nonce": "0x71",
        "accessList": []
      },
      "additionalContracts": [
        {
          "transactionType": "CREATE",
          "address": "0x889C5c987e609C35E82186C24602d98715586edE",
          "initCode": "604060808152346102225761040890813803918261001c81610227565b938492833960209384918101031261022257516001600160a01b03811692838203610222578251916001600160401b03908284018281118582101761020c57808652600096878652823b156101b2577f360894a13ba1a3210667c828492db98dca3e2076cc3735a920a3ca505d382bbc80546001600160a01b031916821790557fbc7cd75a20ee27fd9adebab32041f755214dbc6bffa90cc0225b39da2e5c2d3b8880a28451158015906101ab575b6100dd575b855160e790816103218239f35b8551946060860186811085821117610197578752602786527f416464726573733a206c6f772d6c6576656c2064656c65676174652063616c6c85870152660819985a5b195960ca1b86880152518791829190845af4913d15610186573d90811161017257610166959661015885601f19601f85011601610227565b91825281943d92013e61024c565b508038808080806100d0565b634e487b7160e01b87526041600452602487fd5b50915061016693945060609161024c565b634e487b7160e01b89526041600452602489fd5b50866100cb565b865162461bcd60e51b815260048101869052602d60248201527f455243313936373a206e657720696d706c656d656e746174696f6e206973206e60448201526c1bdd08184818dbdb9d1c9858dd609a1b6064820152608490fd5b634e487b7160e01b600052604160045260246000fd5b600080fd5b6040519190601f01601f191682016001600160401b0381118382101761020c57604052565b919290156102ae5750815115610260575090565b3b156102695790565b60405162461bcd60e51b815260206004820152601d60248201527f416464726573733a2063616c6c20746f206e6f6e2d636f6e74726163740000006044820152606490fd5b8251909150156102c15750805190602001fd5b6040519062461bcd60e51b82528160208060048301528251908160248401526000935b828510610307575050604492506000838284010152601f80199101168101030190fd5b84810182015186860160440152938101938593506102e456fe60806040523615605f5773ffffffffffffffffffffffffffffffffffffffff7f360894a13ba1a3210667c828492db98dca3e2076cc3735a920a3ca505d382bbc54166000808092368280378136915af43d82803e15605b573d90f35b3d90fd5b73ffffffffffffffffffffffffffffffffffffffff7f360894a13ba1a3210667c828492db98dca3e2076cc3735a920a3ca505d382bbc54166000808092368280378136915af43d82803e15605b573d90f3fea264697066735822122097f3f4333263eda6b886e4a6aa32a5ffb791eb932fbd08cd6064884d09fe45dc64736f6c6343000811003300000000000000000000000091c1863ed54809c45b53bb6090eb437036c792c4"
        }
      ],
      "isFixedGasLimit": false
    },
    {
      "hash": "0xa51f396e4ce76299e2c63e4b880b814ebd0744547b711299b2898e2132d6434f",
      "transactionType": "CALL",
      "contractName": "OurColor",
      "contractAddress": "0x639eac45b8CCb2FC70Aae3F431B339b6A5AB907B",
      "function": "setup(bytes)",
      "arguments": [
        "0x000000000000000000000000889c5c987e609c35e82186c24602d98715586ede000000000000000000000000d81351363b7d80b06e4ec4de7989f0f91e41a846"
      ],
      "transaction": {
        "type": "0x02",
        "from": "0x496593189d0673bd5e85509df3f4c4c26e1a0c84",
        "to": "0x639eac45b8ccb2fc70aae3f431b339b6a5ab907b",
        "gas": "0xed1b0",
        "value": "0x0",
        "data": "0x9ded06df00000000000000000000000000000000000000000000000000000000000000200000000000000000000000000000000000000000000000000000000000000040000000000000000000000000889c5c987e609c35e82186c24602d98715586ede000000000000000000000000d81351363b7d80b06e4ec4de7989f0f91e41a846",
        "nonce": "0x72",
        "accessList": []
      },
      "additionalContracts": [],
      "isFixedGasLimit": false
    }
  ],
  "receipts": [
    {
      "transactionHash": "0x1b401dd074be22acf5606f326ef71e003150221c7bbd3f1c430fcfddf64027a0",
      "transactionIndex": "0x1",
      "blockHash": "0x97614ba2cd666dbd6a5556c0e433619a312f66a7c55fe6d44844cbca654e5d00",
      "blockNumber": "0xcbe83",
      "from": "0x496593189D0673bd5E85509dF3F4c4c26e1A0C84",
      "to": null,
      "cumulativeGasUsed": "0xf195b",
      "gasUsed": "0xe4c52",
      "contractAddress": "0x639eac45b8CCb2FC70Aae3F431B339b6A5AB907B",
      "logs": [],
      "status": "0x1",
      "logsBloom": "0x00000000000000000000000000000000000000000000000000000000000000000000000000000000000000000000000000000000000000000000000000000000000000000000000000000000000000000000000000000000000000000000000000000000000000000000000000000000000000000000000000000000000000000000000000000000000000000000000000000000000000000000000000000000000000000000000000000000000000000000000000000000000000000000000000000000000000000000000000000000000000000000000000000000000000000000000000000000000000000000000000000000000000000000000000000000",
      "type": "0x2",
      "effectiveGasPrice": "0xb2d05e08"
    },
    {
      "transactionHash": "0xddc6f9fb452a7dd1a13862d4b89839d2debfeb648aadb1a039a73d15e0ede259",
      "transactionIndex": "0x2",
      "blockHash": "0x97614ba2cd666dbd6a5556c0e433619a312f66a7c55fe6d44844cbca654e5d00",
      "blockNumber": "0xcbe83",
      "from": "0x496593189D0673bd5E85509dF3F4c4c26e1A0C84",
      "to": null,
      "cumulativeGasUsed": "0x18ae7f",
      "gasUsed": "0x99524",
      "contractAddress": "0xCB4da5Be67DC59C91934a53FB1428Be2f9616698",
      "logs": [],
      "status": "0x1",
      "logsBloom": "0x00000000000000000000000000000000000000000000000000000000000000000000000000000000000000000000000000000000000000000000000000000000000000000000000000000000000000000000000000000000000000000000000000000000000000000000000000000000000000000000000000000000000000000000000000000000000000000000000000000000000000000000000000000000000000000000000000000000000000000000000000000000000000000000000000000000000000000000000000000000000000000000000000000000000000000000000000000000000000000000000000000000000000000000000000000000",
      "type": "0x2",
      "effectiveGasPrice": "0xb2d05e08"
    },
    {
      "transactionHash": "0x8168cbc6938561c3a4f099ca0b9ac9d0c80e0220784361a7fdec0acbad887ee0",
      "transactionIndex": "0x3",
      "blockHash": "0x97614ba2cd666dbd6a5556c0e433619a312f66a7c55fe6d44844cbca654e5d00",
      "blockNumber": "0xcbe83",
      "from": "0x496593189D0673bd5E85509dF3F4c4c26e1A0C84",
      "to": "0xCB4da5Be67DC59C91934a53FB1428Be2f9616698",
      "cumulativeGasUsed": "0x19bd5b",
      "gasUsed": "0x10edc",
      "contractAddress": null,
      "logs": [],
      "status": "0x1",
      "logsBloom": "0x00000000000000000000000000000000000000000000000000000000000000000000000000000000000000000000000000000000000000000000000000000000000000000000000000000000000000000000000000000000000000000000000000000000000000000000000000000000000000000000000000000000000000000000000000000000000000000000000000000000000000000000000000000000000000000000000000000000000000000000000000000000000000000000000000000000000000000000000000000000000000000000000000000000000000000000000000000000000000000000000000000000000000000000000000000000",
      "type": "0x2",
      "effectiveGasPrice": "0xb2d05e08"
    },
    {
      "transactionHash": "0xd6d52bbd9c97ac49aa1b2b30286d278b021f70674dbcf805e74660a49db64548",
      "transactionIndex": "0x4",
      "blockHash": "0x97614ba2cd666dbd6a5556c0e433619a312f66a7c55fe6d44844cbca654e5d00",
      "blockNumber": "0xcbe83",
      "from": "0x496593189D0673bd5E85509dF3F4c4c26e1A0C84",
      "to": "0x6a357139C1bcDcf0B3AB9bC447932dDdcb956703",
      "cumulativeGasUsed": "0x211883",
      "gasUsed": "0x75b28",
      "contractAddress": null,
      "logs": [
        {
          "address": "0x889C5c987e609C35E82186C24602d98715586edE",
          "topics": [
            "0xbc7cd75a20ee27fd9adebab32041f755214dbc6bffa90cc0225b39da2e5c2d3b",
            "0x00000000000000000000000091c1863ed54809c45b53bb6090eb437036c792c4"
          ],
          "data": "0x",
          "blockHash": "0x97614ba2cd666dbd6a5556c0e433619a312f66a7c55fe6d44844cbca654e5d00",
          "blockNumber": "0xcbe83",
          "transactionHash": "0xd6d52bbd9c97ac49aa1b2b30286d278b021f70674dbcf805e74660a49db64548",
          "transactionIndex": "0x4",
          "logIndex": "0x0",
          "removed": false
        },
        {
          "address": "0x6a357139C1bcDcf0B3AB9bC447932dDdcb956703",
          "topics": [
            "0xa45800684f65ae010ceb4385eceaed88dec7f6a6bcbe11f7ffd8bd24dd2653f4",
            "0x000000000000000000000000889c5c987e609c35e82186c24602d98715586ede",
            "0x000000000000000000000000496593189d0673bd5e85509df3f4c4c26e1a0c84",
            "0x000000000000000000000000496593189d0673bd5e85509df3f4c4c26e1a0c84"
          ],
          "data": "0x00000000000000000000000000000000000000000000000000000000000000a000000000000000000000000000000000000000000000000000000000000000c000000000000000000000000000000000000000000000000000000000000000000000000000000000000000000000000000000000000000000000000000000000000000000000000000000000496593189d0673bd5e85509df3f4c4c26e1a0c84000000000000000000000000000000000000000000000000000000000000000000000000000000000000000000000000000000000000000000000000000000094f757220436f6c6f720000000000000000000000000000000000000000000000",
          "blockHash": "0x97614ba2cd666dbd6a5556c0e433619a312f66a7c55fe6d44844cbca654e5d00",
          "blockNumber": "0xcbe83",
          "transactionHash": "0xd6d52bbd9c97ac49aa1b2b30286d278b021f70674dbcf805e74660a49db64548",
          "transactionIndex": "0x4",
          "logIndex": "0x1",
          "removed": false
        },
        {
          "address": "0x889C5c987e609C35E82186C24602d98715586edE",
          "topics": [
            "0x35fb03d0d293ef5b362761900725ce891f8f766b5a662cdd445372355448e7ca",
            "0x0000000000000000000000000000000000000000000000000000000000000000",
            "0x000000000000000000000000496593189d0673bd5e85509df3f4c4c26e1a0c84",
            "0x0000000000000000000000000000000000000000000000000000000000000002"
          ],
          "data": "0x",
          "blockHash": "0x97614ba2cd666dbd6a5556c0e433619a312f66a7c55fe6d44844cbca654e5d00",
          "blockNumber": "0xcbe83",
          "transactionHash": "0xd6d52bbd9c97ac49aa1b2b30286d278b021f70674dbcf805e74660a49db64548",
          "transactionIndex": "0x4",
          "logIndex": "0x2",
          "removed": false
        },
        {
          "address": "0x889C5c987e609C35E82186C24602d98715586edE",
          "topics": [
            "0x5086d1bcea28999da9875111e3592688fbfa821db63214c695ca35768080c2fe",
            "0x0000000000000000000000006a357139c1bcdcf0b3ab9bc447932dddcb956703",
            "0x0000000000000000000000000000000000000000000000000000000000000000"
          ],
          "data": "0x00000000000000000000000000000000000000000000000000000000000000200000000000000000000000000000000000000000000000000000000000000060000000000000000000000000000000000000000000000000000000000000000000000000000000000000000000000000000000000000000000000000000000000000000000000000000000000000000000000000000000000000000000000000",
          "blockHash": "0x97614ba2cd666dbd6a5556c0e433619a312f66a7c55fe6d44844cbca654e5d00",
          "blockNumber": "0xcbe83",
          "transactionHash": "0xd6d52bbd9c97ac49aa1b2b30286d278b021f70674dbcf805e74660a49db64548",
          "transactionIndex": "0x4",
          "logIndex": "0x3",
          "removed": false
        },
        {
          "address": "0x889C5c987e609C35E82186C24602d98715586edE",
          "topics": [
            "0x5837d55897cfc337f160a71d7b63a047abd50a3a8834f1c5d70f338846358c6d",
            "0x0000000000000000000000000000000000000000000000000000000000000000",
            "0x0000000000000000000000006a357139c1bcdcf0b3ab9bc447932dddcb956703"
          ],
          "data": "0x00000000000000000000000000000000000000000000000000000000000000000000000000000000000000000000000000000000000000000000000000000000000000000000000000000000496593189d0673bd5e85509df3f4c4c26e1a0c84",
          "blockHash": "0x97614ba2cd666dbd6a5556c0e433619a312f66a7c55fe6d44844cbca654e5d00",
          "blockNumber": "0xcbe83",
          "transactionHash": "0xd6d52bbd9c97ac49aa1b2b30286d278b021f70674dbcf805e74660a49db64548",
          "transactionIndex": "0x4",
          "logIndex": "0x4",
          "removed": false
        },
        {
          "address": "0x889C5c987e609C35E82186C24602d98715586edE",
          "topics": [
            "0x8be0079c531659141344cd1fd0a4f28419497f9722a3daafe3b4186f6b6457e0"
          ],
          "data": "0x0000000000000000000000000000000000000000000000000000000000000000000000000000000000000000496593189d0673bd5e85509df3f4c4c26e1a0c84",
          "blockHash": "0x97614ba2cd666dbd6a5556c0e433619a312f66a7c55fe6d44844cbca654e5d00",
          "blockNumber": "0xcbe83",
          "transactionHash": "0xd6d52bbd9c97ac49aa1b2b30286d278b021f70674dbcf805e74660a49db64548",
          "transactionIndex": "0x4",
          "logIndex": "0x5",
          "removed": false
        },
        {
          "address": "0x889C5c987e609C35E82186C24602d98715586edE",
          "topics": [
            "0x3be6d3a1d957610f7e900c66889b874cdc9f0c22901aa8be6ec3d2d04c14ca0f",
            "0x0000000000000000000000006a357139c1bcdcf0b3ab9bc447932dddcb956703",
            "0x0000000000000000000000000000000000000000000000000000000000000000"
          ],
          "data": "0x000000000000000000000000496593189d0673bd5e85509df3f4c4c26e1a0c8400000000000000000000000000000000000000000000000000000000000000000000000000000000000000000000000000000000000000000000000000000000000000000000000000000000000000000000000000000000000000000000000000000000000000000000000000000000000000000000000000000000000000000000000000000000000000000000000000000000000000000000000000000000",
          "blockHash": "0x97614ba2cd666dbd6a5556c0e433619a312f66a7c55fe6d44844cbca654e5d00",
          "blockNumber": "0xcbe83",
          "transactionHash": "0xd6d52bbd9c97ac49aa1b2b30286d278b021f70674dbcf805e74660a49db64548",
          "transactionIndex": "0x4",
          "logIndex": "0x6",
          "removed": false
        },
        {
          "address": "0x889C5c987e609C35E82186C24602d98715586edE",
          "topics": [
            "0x3be6d3a1d957610f7e900c66889b874cdc9f0c22901aa8be6ec3d2d04c14ca0f",
            "0x0000000000000000000000006a357139c1bcdcf0b3ab9bc447932dddcb956703",
            "0x0000000000000000000000000000000000000000000000000000000000000001"
          ],
          "data": "0x000000000000000000000000496593189d0673bd5e85509df3f4c4c26e1a0c840000000000000000000000000000000000000000000000000000000000000000000000000000000000000000496593189d0673bd5e85509df3f4c4c26e1a0c84000000000000000000000000000000000000000000000000000000000000000000000000000000000000000000000000000000000000000000000000000000000000000000000000000000000000000000000000000000000000000000000000",
          "blockHash": "0x97614ba2cd666dbd6a5556c0e433619a312f66a7c55fe6d44844cbca654e5d00",
          "blockNumber": "0xcbe83",
          "transactionHash": "0xd6d52bbd9c97ac49aa1b2b30286d278b021f70674dbcf805e74660a49db64548",
          "transactionIndex": "0x4",
          "logIndex": "0x7",
          "removed": false
        },
        {
          "address": "0x889C5c987e609C35E82186C24602d98715586edE",
          "topics": [
            "0x35fb03d0d293ef5b362761900725ce891f8f766b5a662cdd445372355448e7ca",
            "0x0000000000000000000000000000000000000000000000000000000000000000",
            "0x0000000000000000000000006a357139c1bcdcf0b3ab9bc447932dddcb956703",
            "0x0000000000000000000000000000000000000000000000000000000000000002"
          ],
          "data": "0x",
          "blockHash": "0x97614ba2cd666dbd6a5556c0e433619a312f66a7c55fe6d44844cbca654e5d00",
          "blockNumber": "0xcbe83",
          "transactionHash": "0xd6d52bbd9c97ac49aa1b2b30286d278b021f70674dbcf805e74660a49db64548",
          "transactionIndex": "0x4",
          "logIndex": "0x8",
          "removed": false
        },
        {
          "address": "0x889C5c987e609C35E82186C24602d98715586edE",
          "topics": [
            "0x5010f780a0de79bcfb9f3d6fec3cfe29758ef5c5800d575af709bc590bd78ade",
            "0x0000000000000000000000000000000000000000000000000000000000000000",
            "0x000000000000000000000000cb4da5be67dc59c91934a53fb1428be2f9616698",
            "0x0000000000000000000000006a357139c1bcdcf0b3ab9bc447932dddcb956703"
          ],
          "data": "0x",
          "blockHash": "0x97614ba2cd666dbd6a5556c0e433619a312f66a7c55fe6d44844cbca654e5d00",
          "blockNumber": "0xcbe83",
          "transactionHash": "0xd6d52bbd9c97ac49aa1b2b30286d278b021f70674dbcf805e74660a49db64548",
          "transactionIndex": "0x4",
          "logIndex": "0x9",
          "removed": false
        },
        {
          "address": "0x889C5c987e609C35E82186C24602d98715586edE",
          "topics": [
            "0x56e810c8cae84731149f628981d25769a084570b9ba6eebf3c32879e3dce5609"
          ],
          "data": "0x000000000000000000000000cb4da5be67dc59c91934a53fb1428be2f9616698",
          "blockHash": "0x97614ba2cd666dbd6a5556c0e433619a312f66a7c55fe6d44844cbca654e5d00",
          "blockNumber": "0xcbe83",
          "transactionHash": "0xd6d52bbd9c97ac49aa1b2b30286d278b021f70674dbcf805e74660a49db64548",
          "transactionIndex": "0x4",
          "logIndex": "0xa",
          "removed": false
        },
        {
          "address": "0x889C5c987e609C35E82186C24602d98715586edE",
          "topics": [
            "0x5010f780a0de79bcfb9f3d6fec3cfe29758ef5c5800d575af709bc590bd78ade",
            "0x0000000000000000000000000000000000000000000000000000000000000001",
            "0x000000000000000000000000cb4da5be67dc59c91934a53fb1428be2f9616698",
            "0x0000000000000000000000006a357139c1bcdcf0b3ab9bc447932dddcb956703"
          ],
          "data": "0x",
          "blockHash": "0x97614ba2cd666dbd6a5556c0e433619a312f66a7c55fe6d44844cbca654e5d00",
          "blockNumber": "0xcbe83",
          "transactionHash": "0xd6d52bbd9c97ac49aa1b2b30286d278b021f70674dbcf805e74660a49db64548",
          "transactionIndex": "0x4",
          "logIndex": "0xb",
          "removed": false
        },
        {
          "address": "0x889C5c987e609C35E82186C24602d98715586edE",
          "topics": [
            "0x6bb7ff708619ba0610cba295a58592e0451dee2622938c8755667688daf3529b",
            "0x0000000000000000000000000000000000000000000000000000000000000001"
          ],
          "data": "0x00000000000000000000000000000000000000000000000000000000000000200000000000000000000000000000000000000000000000000000000000000000",
          "blockHash": "0x97614ba2cd666dbd6a5556c0e433619a312f66a7c55fe6d44844cbca654e5d00",
          "blockNumber": "0xcbe83",
          "transactionHash": "0xd6d52bbd9c97ac49aa1b2b30286d278b021f70674dbcf805e74660a49db64548",
          "transactionIndex": "0x4",
          "logIndex": "0xc",
          "removed": false
        },
        {
          "address": "0x889C5c987e609C35E82186C24602d98715586edE",
          "topics": [
            "0x5010f780a0de79bcfb9f3d6fec3cfe29758ef5c5800d575af709bc590bd78ade",
            "0x0000000000000000000000000000000000000000000000000000000000000002",
            "0x000000000000000000000000cb4da5be67dc59c91934a53fb1428be2f9616698",
            "0x0000000000000000000000006a357139c1bcdcf0b3ab9bc447932dddcb956703"
          ],
          "data": "0x",
          "blockHash": "0x97614ba2cd666dbd6a5556c0e433619a312f66a7c55fe6d44844cbca654e5d00",
          "blockNumber": "0xcbe83",
          "transactionHash": "0xd6d52bbd9c97ac49aa1b2b30286d278b021f70674dbcf805e74660a49db64548",
          "transactionIndex": "0x4",
          "logIndex": "0xd",
          "removed": false
        },
        {
          "address": "0x889C5c987e609C35E82186C24602d98715586edE",
          "topics": [
            "0x6bb7ff708619ba0610cba295a58592e0451dee2622938c8755667688daf3529b",
            "0x0000000000000000000000000000000000000000000000000000000000000002"
          ],
          "data": "0x00000000000000000000000000000000000000000000000000000000000000200000000000000000000000000000000000000000000000000000000000000000",
          "blockHash": "0x97614ba2cd666dbd6a5556c0e433619a312f66a7c55fe6d44844cbca654e5d00",
          "blockNumber": "0xcbe83",
          "transactionHash": "0xd6d52bbd9c97ac49aa1b2b30286d278b021f70674dbcf805e74660a49db64548",
          "transactionIndex": "0x4",
          "logIndex": "0xe",
          "removed": false
        },
        {
          "address": "0x889C5c987e609C35E82186C24602d98715586edE",
          "topics": [
            "0x35fb03d0d293ef5b362761900725ce891f8f766b5a662cdd445372355448e7ca",
            "0x0000000000000000000000000000000000000000000000000000000000000000",
            "0x000000000000000000000000639eac45b8ccb2fc70aae3f431b339b6a5ab907b",
            "0x0000000000000000000000000000000000000000000000000000000000000002"
          ],
          "data": "0x",
          "blockHash": "0x97614ba2cd666dbd6a5556c0e433619a312f66a7c55fe6d44844cbca654e5d00",
          "blockNumber": "0xcbe83",
          "transactionHash": "0xd6d52bbd9c97ac49aa1b2b30286d278b021f70674dbcf805e74660a49db64548",
          "transactionIndex": "0x4",
          "logIndex": "0xf",
          "removed": false
        },
        {
          "address": "0x889C5c987e609C35E82186C24602d98715586edE",
          "topics": [
            "0x35fb03d0d293ef5b362761900725ce891f8f766b5a662cdd445372355448e7ca",
            "0x0000000000000000000000000000000000000000000000000000000000000000",
            "0x0000000000000000000000006a357139c1bcdcf0b3ab9bc447932dddcb956703",
            "0x0000000000000000000000000000000000000000000000000000000000000000"
          ],
          "data": "0x",
          "blockHash": "0x97614ba2cd666dbd6a5556c0e433619a312f66a7c55fe6d44844cbca654e5d00",
          "blockNumber": "0xcbe83",
          "transactionHash": "0xd6d52bbd9c97ac49aa1b2b30286d278b021f70674dbcf805e74660a49db64548",
          "transactionIndex": "0x4",
          "logIndex": "0x10",
          "removed": false
        },
        {
          "address": "0x889C5c987e609C35E82186C24602d98715586edE",
          "topics": [
            "0x7f26b83ff96e1f2b6a682f133852f6798a09c465da95921460cefb3847402498"
          ],
          "data": "0x0000000000000000000000000000000000000000000000000000000000000001",
          "blockHash": "0x97614ba2cd666dbd6a5556c0e433619a312f66a7c55fe6d44844cbca654e5d00",
          "blockNumber": "0xcbe83",
          "transactionHash": "0xd6d52bbd9c97ac49aa1b2b30286d278b021f70674dbcf805e74660a49db64548",
          "transactionIndex": "0x4",
          "logIndex": "0x11",
          "removed": false
        }
      ],
      "status": "0x1",
      "logsBloom": "0x040004000000200000000000000000044000000000400000808000020000000000000000c0000400000000000000000020020000000000000000000000040000000000400000010000000220000002000001000000040800000000000000000000000000020000000400028000000c00000020000000080000000000000100400000008000000000000000000000001000000000800080800000000000000000000000004000200000004100020400000000040002000011000000000000802000000020000000004000040000040000000000000002200400000000000068000000000000010000000000000000000000000000008020008000010000000000",
      "type": "0x2",
      "effectiveGasPrice": "0xb2d05e08"
    },
    {
      "transactionHash": "0xa51f396e4ce76299e2c63e4b880b814ebd0744547b711299b2898e2132d6434f",
      "transactionIndex": "0x5",
      "blockHash": "0x97614ba2cd666dbd6a5556c0e433619a312f66a7c55fe6d44844cbca654e5d00",
      "blockNumber": "0xcbe83",
      "from": "0x496593189D0673bd5E85509dF3F4c4c26e1A0C84",
      "to": "0x639eac45b8CCb2FC70Aae3F431B339b6A5AB907B",
      "cumulativeGasUsed": "0x2b3a7d",
      "gasUsed": "0xa21fa",
      "contractAddress": null,
      "logs": [
        {
          "address": "0x889C5c987e609C35E82186C24602d98715586edE",
          "topics": [
            "0x5086d1bcea28999da9875111e3592688fbfa821db63214c695ca35768080c2fe",
            "0x000000000000000000000000639eac45b8ccb2fc70aae3f431b339b6a5ab907b",
            "0x0000000000000000000000000000000000000000000000000000000000000001"
          ],
          "data": "0x00000000000000000000000000000000000000000000000000000000000000200000000000000000000000000000000000000000000000000000000000000060ffffffffffffffffffffffffffffffffffffffffffffffffffffffffffffffff00000000000000000000000000000000000000000000000000000000000000000000000000000000000000000000000000000000000000000000000000000000",
          "blockHash": "0x97614ba2cd666dbd6a5556c0e433619a312f66a7c55fe6d44844cbca654e5d00",
          "blockNumber": "0xcbe83",
          "transactionHash": "0xa51f396e4ce76299e2c63e4b880b814ebd0744547b711299b2898e2132d6434f",
          "transactionIndex": "0x5",
          "logIndex": "0x12",
          "removed": false
        },
        {
          "address": "0x889C5c987e609C35E82186C24602d98715586edE",
          "topics": [
            "0x35fb03d0d293ef5b362761900725ce891f8f766b5a662cdd445372355448e7ca",
            "0x0000000000000000000000000000000000000000000000000000000000000001",
            "0x000000000000000000000000639eac45b8ccb2fc70aae3f431b339b6a5ab907b",
            "0x0000000000000000000000000000000000000000000000000000000000000002"
          ],
          "data": "0x",
          "blockHash": "0x97614ba2cd666dbd6a5556c0e433619a312f66a7c55fe6d44844cbca654e5d00",
          "blockNumber": "0xcbe83",
          "transactionHash": "0xa51f396e4ce76299e2c63e4b880b814ebd0744547b711299b2898e2132d6434f",
          "transactionIndex": "0x5",
          "logIndex": "0x13",
          "removed": false
        },
        {
          "address": "0x889C5c987e609C35E82186C24602d98715586edE",
          "topics": [
            "0x1b944478023872bf91b25a13fdba3a686fdb1bf4dbb872f850240fad4b8cc068",
            "0x0000000000000000000000000000000000000000000000000000000000000001",
            "0x000000000000000000000000639eac45b8ccb2fc70aae3f431b339b6a5ab907b"
          ],
          "data": "0x0000000000000000000000000000000000000000000000000000000000000040ffffffffffffffffffffffffffffffffffffffffffffffffffffffffffffffff0000000000000000000000000000000000000000000000000000000000000000",
          "blockHash": "0x97614ba2cd666dbd6a5556c0e433619a312f66a7c55fe6d44844cbca654e5d00",
          "blockNumber": "0xcbe83",
          "transactionHash": "0xa51f396e4ce76299e2c63e4b880b814ebd0744547b711299b2898e2132d6434f",
          "transactionIndex": "0x5",
          "logIndex": "0x14",
          "removed": false
        },
        {
          "address": "0x889C5c987e609C35E82186C24602d98715586edE",
          "topics": [
            "0x35fb03d0d293ef5b362761900725ce891f8f766b5a662cdd445372355448e7ca",
            "0x0000000000000000000000000000000000000000000000000000000000000001",
            "0x000000000000000000000000d81351363b7d80b06e4ec4de7989f0f91e41a846",
            "0x0000000000000000000000000000000000000000000000000000000000000004"
          ],
          "data": "0x",
          "blockHash": "0x97614ba2cd666dbd6a5556c0e433619a312f66a7c55fe6d44844cbca654e5d00",
          "blockNumber": "0xcbe83",
          "transactionHash": "0xa51f396e4ce76299e2c63e4b880b814ebd0744547b711299b2898e2132d6434f",
          "transactionIndex": "0x5",
          "logIndex": "0x15",
          "removed": false
        },
        {
          "address": "0xd81351363b7d80b06E4Ec4De7989f0f91e41A846",
          "topics": [
            "0x5e4ad74f00b9a9d4a8452359a7fbd80cc5a6930a9df5e5b797ddc024b24b252c",
            "0x000000000000000000000000889c5c987e609c35e82186c24602d98715586ede",
            "0x0000000000000000000000000000000000000000000000000000000000000001"
          ],
          "data": "0x0000000000000000000000000000000000000000000000000000000000000000000000000000000000000000000000000000000000000000ffffffffffffffff000000000000000000000000000000000000000000000000000000000000000000000000000000000000000000000000000000000000000000000000000000000000000000000000000000000000000000000000000000000000000000000000",
          "blockHash": "0x97614ba2cd666dbd6a5556c0e433619a312f66a7c55fe6d44844cbca654e5d00",
          "blockNumber": "0xcbe83",
          "transactionHash": "0xa51f396e4ce76299e2c63e4b880b814ebd0744547b711299b2898e2132d6434f",
          "transactionIndex": "0x5",
          "logIndex": "0x16",
          "removed": false
        },
        {
          "address": "0x889C5c987e609C35E82186C24602d98715586edE",
          "topics": [
            "0x5086d1bcea28999da9875111e3592688fbfa821db63214c695ca35768080c2fe",
            "0x000000000000000000000000639eac45b8ccb2fc70aae3f431b339b6a5ab907b",
            "0x0000000000000000000000000000000000000000000000000000000000000002"
          ],
          "data": "0x00000000000000000000000000000000000000000000000000000000000000200000000000000000000000000000000000000000000000000000000000000060ffffffffffffffffffffffffffffffffffffffffffffffffffffffffffffffff00000000000000000000000000000000000000000000000000000000000000000000000000000000000000000000000000000000000000000000000000000000",
          "blockHash": "0x97614ba2cd666dbd6a5556c0e433619a312f66a7c55fe6d44844cbca654e5d00",
          "blockNumber": "0xcbe83",
          "transactionHash": "0xa51f396e4ce76299e2c63e4b880b814ebd0744547b711299b2898e2132d6434f",
          "transactionIndex": "0x5",
          "logIndex": "0x17",
          "removed": false
        },
        {
          "address": "0x889C5c987e609C35E82186C24602d98715586edE",
          "topics": [
            "0x35fb03d0d293ef5b362761900725ce891f8f766b5a662cdd445372355448e7ca",
            "0x0000000000000000000000000000000000000000000000000000000000000002",
            "0x000000000000000000000000639eac45b8ccb2fc70aae3f431b339b6a5ab907b",
            "0x0000000000000000000000000000000000000000000000000000000000000002"
          ],
          "data": "0x",
          "blockHash": "0x97614ba2cd666dbd6a5556c0e433619a312f66a7c55fe6d44844cbca654e5d00",
          "blockNumber": "0xcbe83",
          "transactionHash": "0xa51f396e4ce76299e2c63e4b880b814ebd0744547b711299b2898e2132d6434f",
          "transactionIndex": "0x5",
          "logIndex": "0x18",
          "removed": false
        },
        {
          "address": "0x889C5c987e609C35E82186C24602d98715586edE",
          "topics": [
            "0x1b944478023872bf91b25a13fdba3a686fdb1bf4dbb872f850240fad4b8cc068",
            "0x0000000000000000000000000000000000000000000000000000000000000002",
            "0x000000000000000000000000639eac45b8ccb2fc70aae3f431b339b6a5ab907b"
          ],
          "data": "0x0000000000000000000000000000000000000000000000000000000000000040ffffffffffffffffffffffffffffffffffffffffffffffffffffffffffffffff0000000000000000000000000000000000000000000000000000000000000000",
          "blockHash": "0x97614ba2cd666dbd6a5556c0e433619a312f66a7c55fe6d44844cbca654e5d00",
          "blockNumber": "0xcbe83",
          "transactionHash": "0xa51f396e4ce76299e2c63e4b880b814ebd0744547b711299b2898e2132d6434f",
          "transactionIndex": "0x5",
          "logIndex": "0x19",
          "removed": false
        },
        {
          "address": "0x889C5c987e609C35E82186C24602d98715586edE",
          "topics": [
            "0x35fb03d0d293ef5b362761900725ce891f8f766b5a662cdd445372355448e7ca",
            "0x0000000000000000000000000000000000000000000000000000000000000002",
            "0x000000000000000000000000d81351363b7d80b06e4ec4de7989f0f91e41a846",
            "0x0000000000000000000000000000000000000000000000000000000000000004"
          ],
          "data": "0x",
          "blockHash": "0x97614ba2cd666dbd6a5556c0e433619a312f66a7c55fe6d44844cbca654e5d00",
          "blockNumber": "0xcbe83",
          "transactionHash": "0xa51f396e4ce76299e2c63e4b880b814ebd0744547b711299b2898e2132d6434f",
          "transactionIndex": "0x5",
          "logIndex": "0x1a",
          "removed": false
        },
        {
          "address": "0xd81351363b7d80b06E4Ec4De7989f0f91e41A846",
          "topics": [
            "0x5e4ad74f00b9a9d4a8452359a7fbd80cc5a6930a9df5e5b797ddc024b24b252c",
            "0x000000000000000000000000889c5c987e609c35e82186c24602d98715586ede",
            "0x0000000000000000000000000000000000000000000000000000000000000002"
          ],
          "data": "0x0000000000000000000000000000000000000000000000000000000000000000000000000000000000000000000000000000000000000000ffffffffffffffff000000000000000000000000000000000000000000000000000000000000000000000000000000000000000000000000000000000000000000000000000000000000000000000000000000000000000000000000000000000000000000000000",
          "blockHash": "0x97614ba2cd666dbd6a5556c0e433619a312f66a7c55fe6d44844cbca654e5d00",
          "blockNumber": "0xcbe83",
          "transactionHash": "0xa51f396e4ce76299e2c63e4b880b814ebd0744547b711299b2898e2132d6434f",
          "transactionIndex": "0x5",
          "logIndex": "0x1b",
          "removed": false
        },
        {
          "address": "0x889C5c987e609C35E82186C24602d98715586edE",
          "topics": [
            "0x5086d1bcea28999da9875111e3592688fbfa821db63214c695ca35768080c2fe",
            "0x000000000000000000000000639eac45b8ccb2fc70aae3f431b339b6a5ab907b",
            "0x0000000000000000000000000000000000000000000000000000000000000003"
          ],
          "data": "0x00000000000000000000000000000000000000000000000000000000000000200000000000000000000000000000000000000000000000000000000000000060ffffffffffffffffffffffffffffffffffffffffffffffffffffffffffffffff00000000000000000000000000000000000000000000000000000000000000000000000000000000000000000000000000000000000000000000000000000000",
          "blockHash": "0x97614ba2cd666dbd6a5556c0e433619a312f66a7c55fe6d44844cbca654e5d00",
          "blockNumber": "0xcbe83",
          "transactionHash": "0xa51f396e4ce76299e2c63e4b880b814ebd0744547b711299b2898e2132d6434f",
          "transactionIndex": "0x5",
          "logIndex": "0x1c",
          "removed": false
        },
        {
          "address": "0x889C5c987e609C35E82186C24602d98715586edE",
          "topics": [
            "0x35fb03d0d293ef5b362761900725ce891f8f766b5a662cdd445372355448e7ca",
            "0x0000000000000000000000000000000000000000000000000000000000000003",
            "0x000000000000000000000000639eac45b8ccb2fc70aae3f431b339b6a5ab907b",
            "0x0000000000000000000000000000000000000000000000000000000000000002"
          ],
          "data": "0x",
          "blockHash": "0x97614ba2cd666dbd6a5556c0e433619a312f66a7c55fe6d44844cbca654e5d00",
          "blockNumber": "0xcbe83",
          "transactionHash": "0xa51f396e4ce76299e2c63e4b880b814ebd0744547b711299b2898e2132d6434f",
          "transactionIndex": "0x5",
          "logIndex": "0x1d",
          "removed": false
        },
        {
          "address": "0x889C5c987e609C35E82186C24602d98715586edE",
          "topics": [
            "0x1b944478023872bf91b25a13fdba3a686fdb1bf4dbb872f850240fad4b8cc068",
            "0x0000000000000000000000000000000000000000000000000000000000000003",
            "0x000000000000000000000000639eac45b8ccb2fc70aae3f431b339b6a5ab907b"
          ],
          "data": "0x0000000000000000000000000000000000000000000000000000000000000040ffffffffffffffffffffffffffffffffffffffffffffffffffffffffffffffff0000000000000000000000000000000000000000000000000000000000000000",
          "blockHash": "0x97614ba2cd666dbd6a5556c0e433619a312f66a7c55fe6d44844cbca654e5d00",
          "blockNumber": "0xcbe83",
          "transactionHash": "0xa51f396e4ce76299e2c63e4b880b814ebd0744547b711299b2898e2132d6434f",
          "transactionIndex": "0x5",
          "logIndex": "0x1e",
          "removed": false
        },
        {
          "address": "0x889C5c987e609C35E82186C24602d98715586edE",
          "topics": [
            "0x35fb03d0d293ef5b362761900725ce891f8f766b5a662cdd445372355448e7ca",
            "0x0000000000000000000000000000000000000000000000000000000000000003",
            "0x000000000000000000000000d81351363b7d80b06e4ec4de7989f0f91e41a846",
            "0x0000000000000000000000000000000000000000000000000000000000000004"
          ],
          "data": "0x",
          "blockHash": "0x97614ba2cd666dbd6a5556c0e433619a312f66a7c55fe6d44844cbca654e5d00",
          "blockNumber": "0xcbe83",
          "transactionHash": "0xa51f396e4ce76299e2c63e4b880b814ebd0744547b711299b2898e2132d6434f",
          "transactionIndex": "0x5",
          "logIndex": "0x1f",
          "removed": false
        },
        {
          "address": "0xd81351363b7d80b06E4Ec4De7989f0f91e41A846",
          "topics": [
            "0x5e4ad74f00b9a9d4a8452359a7fbd80cc5a6930a9df5e5b797ddc024b24b252c",
            "0x000000000000000000000000889c5c987e609c35e82186c24602d98715586ede",
            "0x0000000000000000000000000000000000000000000000000000000000000003"
          ],
          "data": "0x0000000000000000000000000000000000000000000000000000000000000000000000000000000000000000000000000000000000000000ffffffffffffffff000000000000000000000000000000000000000000000000000000000000000000000000000000000000000000000000000000000000000000000000000000000000000000000000000000000000000000000000000000000000000000000000",
          "blockHash": "0x97614ba2cd666dbd6a5556c0e433619a312f66a7c55fe6d44844cbca654e5d00",
          "blockNumber": "0xcbe83",
          "transactionHash": "0xa51f396e4ce76299e2c63e4b880b814ebd0744547b711299b2898e2132d6434f",
          "transactionIndex": "0x5",
          "logIndex": "0x20",
          "removed": false
        },
        {
          "address": "0x889C5c987e609C35E82186C24602d98715586edE",
          "topics": [
            "0x5086d1bcea28999da9875111e3592688fbfa821db63214c695ca35768080c2fe",
            "0x000000000000000000000000639eac45b8ccb2fc70aae3f431b339b6a5ab907b",
            "0x0000000000000000000000000000000000000000000000000000000000000004"
          ],
          "data": "0x00000000000000000000000000000000000000000000000000000000000000200000000000000000000000000000000000000000000000000000000000000060ffffffffffffffffffffffffffffffffffffffffffffffffffffffffffffffff00000000000000000000000000000000000000000000000000000000000000000000000000000000000000000000000000000000000000000000000000000000",
          "blockHash": "0x97614ba2cd666dbd6a5556c0e433619a312f66a7c55fe6d44844cbca654e5d00",
          "blockNumber": "0xcbe83",
          "transactionHash": "0xa51f396e4ce76299e2c63e4b880b814ebd0744547b711299b2898e2132d6434f",
          "transactionIndex": "0x5",
          "logIndex": "0x21",
          "removed": false
        },
        {
          "address": "0x889C5c987e609C35E82186C24602d98715586edE",
          "topics": [
            "0x35fb03d0d293ef5b362761900725ce891f8f766b5a662cdd445372355448e7ca",
            "0x0000000000000000000000000000000000000000000000000000000000000004",
            "0x000000000000000000000000639eac45b8ccb2fc70aae3f431b339b6a5ab907b",
            "0x0000000000000000000000000000000000000000000000000000000000000002"
          ],
          "data": "0x",
          "blockHash": "0x97614ba2cd666dbd6a5556c0e433619a312f66a7c55fe6d44844cbca654e5d00",
          "blockNumber": "0xcbe83",
          "transactionHash": "0xa51f396e4ce76299e2c63e4b880b814ebd0744547b711299b2898e2132d6434f",
          "transactionIndex": "0x5",
          "logIndex": "0x22",
          "removed": false
        },
        {
          "address": "0x889C5c987e609C35E82186C24602d98715586edE",
          "topics": [
            "0x1b944478023872bf91b25a13fdba3a686fdb1bf4dbb872f850240fad4b8cc068",
            "0x0000000000000000000000000000000000000000000000000000000000000004",
            "0x000000000000000000000000639eac45b8ccb2fc70aae3f431b339b6a5ab907b"
          ],
          "data": "0x0000000000000000000000000000000000000000000000000000000000000040ffffffffffffffffffffffffffffffffffffffffffffffffffffffffffffffff0000000000000000000000000000000000000000000000000000000000000000",
          "blockHash": "0x97614ba2cd666dbd6a5556c0e433619a312f66a7c55fe6d44844cbca654e5d00",
          "blockNumber": "0xcbe83",
          "transactionHash": "0xa51f396e4ce76299e2c63e4b880b814ebd0744547b711299b2898e2132d6434f",
          "transactionIndex": "0x5",
          "logIndex": "0x23",
          "removed": false
        },
        {
          "address": "0x889C5c987e609C35E82186C24602d98715586edE",
          "topics": [
            "0x35fb03d0d293ef5b362761900725ce891f8f766b5a662cdd445372355448e7ca",
            "0x0000000000000000000000000000000000000000000000000000000000000004",
            "0x000000000000000000000000d81351363b7d80b06e4ec4de7989f0f91e41a846",
            "0x0000000000000000000000000000000000000000000000000000000000000004"
          ],
          "data": "0x",
          "blockHash": "0x97614ba2cd666dbd6a5556c0e433619a312f66a7c55fe6d44844cbca654e5d00",
          "blockNumber": "0xcbe83",
          "transactionHash": "0xa51f396e4ce76299e2c63e4b880b814ebd0744547b711299b2898e2132d6434f",
          "transactionIndex": "0x5",
          "logIndex": "0x24",
          "removed": false
        },
        {
          "address": "0xd81351363b7d80b06E4Ec4De7989f0f91e41A846",
          "topics": [
            "0x5e4ad74f00b9a9d4a8452359a7fbd80cc5a6930a9df5e5b797ddc024b24b252c",
            "0x000000000000000000000000889c5c987e609c35e82186c24602d98715586ede",
            "0x0000000000000000000000000000000000000000000000000000000000000004"
          ],
          "data": "0x0000000000000000000000000000000000000000000000000000000000000000000000000000000000000000000000000000000000000000ffffffffffffffff000000000000000000000000000000000000000000000000000000000000000000000000000000000000000000000000000000000000000000000000000000000000000000000000000000000000000000000000000000000000000000000000",
          "blockHash": "0x97614ba2cd666dbd6a5556c0e433619a312f66a7c55fe6d44844cbca654e5d00",
          "blockNumber": "0xcbe83",
          "transactionHash": "0xa51f396e4ce76299e2c63e4b880b814ebd0744547b711299b2898e2132d6434f",
          "transactionIndex": "0x5",
          "logIndex": "0x25",
          "removed": false
        }
      ],
      "status": "0x1",
      "logsBloom": "0x04000000000020000400000000000000000000000000000000040002000000000000000000002400000000000000000000000000020000000000000000040000000000000000000000000000000000000000000000040000000000000000000008000000000000000000000000000000000020001000080000000800000000000000008000000000000000000000000000000000000002000000000000001000000000000000000000000100020000000000000002800001002000000000400000004040000000000000040002000000000000008002200000000000000048000000000000010000000000000000000000000000008020000000000000000000",
      "type": "0x2",
      "effectiveGasPrice": "0xb2d05e08"
    }
  ],
  "libraries": [],
  "pending": [],
  "returns": {},
  "timestamp": 1691582958,
  "chain": 999,
  "multi": false,
  "commit": "32fc578"
}